:020000040800F2
:10000000403B0124D92A000825A70108AD2A000891
:10001000AD2A0008AD2A0008AD2A00080000000043
:10002000000000000000000000000000CD230008D8
:10003000AD2A00080000000079230008CD42000826
:10004000712400087124000871240008712400083C
:10005000712400087124000871240008712400082C
:10006000712400087124000871240008712400081C
:10007000712400087124000871240008712400080C
:1002CC0053B94AB9002908BF00281CBF4FF0FF31B1
:1002DC004FF0FF3000F00CB8ADF1080C6DE904CE16
:1002EC0000F008F8DDF804E0DDE9022304B0704703
:1002FC00704700BF2DE9F04786468C460846089E9D
:10030C00154674461946002B40F0C2808542B2FA5D
:10031C0082F245D94AB1C2F1200300FA02FC2EFA4E
:10032C0003F3954043EA0C0C94404FEA154EA8B2E7
:10033C00BCFBFEF8230C0EFB18CC08FB00F943EABF
:10034C000C43994528D9EB1808F1FF3704D299458D
:10035C0002D9A8F102072B44A3EB0903A4B2B3FB07
:10036C00FEFC0EFB1C330CFB00F044EA0344A042E1
:10037C0014D92C190CF1FF3304D2A04202D9ACF1E0
:10038C0002032C44241A43EA07401EB1D440002334
:10039C0034607360BDE8F0874746DDE76346F1E7FC
:1003AC0092BB431B01214FEA154EAFB2B3FBFEFCCF
:1003BC00200C0EFB1C330CFB07F840EA034398455A
:1003CC0062D9EB180CF1FF3004D2984502D9ACF18C
:1003DC0002002B44A3EB0803A4B2B3FBFEFC0EFB00
:1003EC001C330CFB07F744EA0344A7424ED92C19E3
:1003FC000CF1FF3304D2A74202D9ACF102032C4416
:10040C00E41B43EA0040C0E7C2F1200320FA03F1E9
:10041C00954090402EFA03F303434FEA154EAFB2CA
:10042C00B1FBFEFC0EFB1C10190C0CFB07F841EA8F
:10043C000041884504FA02F422D969180CF1FF3006
:10044C0004D2884502D9ACF102002944A1EB080181
:10045C009BB2B1FBFEFC0EFB1C110CFB07F743EA35
:10046C0001439F420ED9EB180CF1FF3104D29F428D
:10047C0002D9ACF102012B44DB1B41EA004192E7AB
:10048C006046E3E76146F7E76046A3E76346B7E7F4
:10049C00834206D916B9002108467BE7C6E900E07D
:1004AC00F9E7B3FA83F78FB9834201D3724508D8C1
:1004BC00BEEB020460EB030301209C461EB9002135
:1004CC0068E73846FAE7C6E9004CF8E7C7F1200CB4
:1004DC00BB4022FA0CF41C432EFA0CF120FA0CF35C
:1004EC00B84001434FEA14490EFA07F5B3FBF9F88B
:1004FC001FFA84FE09FB18300B0C08FB0EFA43EABA
:10050C0000439A4502FA07F240D9E31808F1FF308C
:10051C0004D29A4502D9A8F102002344A3EB0A03A2
:10052C0089B2B3FBF9F809FB183308FB0EFE41EA5C
:10053C0003418E452CD9611808F1FF3304D28E4546
:10054C0002D9A8F10203214443EA0040A0FB02981F
:10055C00A1EB0E014145CE46434602D306D14D4593
:10056C0004D2B9EB020E68EB04030138002EA6D0BE
:10057C00B5EB0E0261EB030101FA0CFC22FA07F356
:10058C004CEA0303F940C6E9003198E74046C5E759
:10059C004346D9E7F0B53F4885B019F04EFC3E4CC8
:1005AC00204627F029FD002870D03C4819F045FC66
:1005BC0026694FF42022A56806213368204623F0D3
:1005CC00400333602B68984700285FDB33685B0679
:1005DC004FF0400154BFEB682B69204698473048D8
:1005EC0019F02BFC2F4819F028FC642611F07CFD27
:1005FC002D4F1AF0DBFD15F027FE04462B4819F0A1
:10060C001CFC2B49204626F067FC2A4819F015FCE7
:10061C000023092120461A4600241CF0DBF826484A
:10062C0019F00BFC11F060FD1AF0C0FD15F00CFE7A
:10063C000546224819F001FC00230E2128461A46D3
:10064C001CF0C8F81E4819F0F8FB1E4883685B685C
:10065C0098471D4819F0F1FBB4FBF6F306FB134366
:10066C004BB969460A22B4FBF6F019F04DFB69460A
:10067C00284626F031FC12F013FA01340A2000212E
:10068C0019F08AF8BC42E7D10024EAE74FF0FF30BA
:10069C0005B0F0BD309F0208608402083D9F02083F
:1006AC004A9F0208579F02083D860100649F02087A
:1006BC00719F02087E9F02088B9F0208989F020878
:1006CC00A59F0208D8840208B39F02082DE9F04FB9
:1006DC0091B0840705460E46009302F00403DDF842
:1006EC0068900293C2F3C203039203F101030593D2
:1006FC0040F0BA81041D30B1072909D86FF01B00F6
:10070C0011B0BDE8F08F01F00706341DC6F10806E4
:10071C00009B4FF000084FF0040A591E4FF0FF33B6
:10072C004746C34601935346CDF810800DB1009A4D
:10073C0022600598002800F3E8809848009A8242CD
:10074C0003D397488242C0F0E080039AA4EB050ED5
:10075C0092074FEA9E0000F103810F2F00F2B18047
:10076C00002D00F0058107F140020DEB020C019AFF
:10077C000CF8200C0CF8102C049801300490E7E0D5
:10078C007A285DD84B280ED8472859D829282DD837
:10079C00252852D054D820287AD02338D0F1000BF9
:1007AC004BEB000B74E04C382E2849D8DFE800F0F6
:1007BC007048484848484848484848484B48484882
:1007CC00484848484859484B4B595959704B6D4803
:1007DC007048184B184848827F4B48484B487F005C
:1007EC0000204FF0000B4FF0040A38E02A380122A9
:1007FC00C0B202FA00F010EA0E0F49D110F0625CA0
:10080C002FD110EA020B43D06046013C5444B4FB98
:10081C00FAF40AFB04F4002D61D0A3EB050CA444FC
:10082C00B4453FF66BAF002868D1042B47D159F87B
:10083C00043B2360043404232AE0019A013A019218
:10084C004FF0000B24E011F8010C6C2834D111F896
:10085C00023C00206C2B8346C5D14FF0080A53464E
:10086C00D3E709F10709073429F0070924F0070435
:10087C00F9E802AB35B106982044B0423FF63EAFE2
:10088C00C4E900AB08344FF0000B4FF0080A534694
:10089C0011F8010F002878D0BBF1000F7FF470AF76
:1008AC002528F5D1019B4FF0010B013301934FF03B
:1008BC00040AECE7584694E700208346A5E7082B8A
:1008CC0002D06FF015001BE709F1070929F00709A1
:1008DC00F9E80223C4E9002308340823D8E768B9EF
:1008EC00042B02D109F10409A4E7082BE9D109F181
:1008FC00070929F0070909F10809EDE7059A013AFA
:10090C00059259F8042B009210E7039A900720D512
:10091C00A4EB050E4FF0010C4FEA9E00BEF5007FD4
:10092C00CFD20F2FCDD8F5B107F14002C0B20DEBED
:10093C00020E019A0EF8200C0EF8102CBCF1000FD0
:10094C003FF41AAF60F07F0008F101080EF8200C9C
:10095C000137C5F1080204344FF6DA7E069297E7A8
:10096C004FF0000CDAE7BCF1000F01D00136EFE7D5
:10097C00029802360028EBD10098CDE9063119F027
:10098C00DFFE0644DDE90631E2E7631BB3F5806F59
:10099C0097D23DB9A6F10804E018B1E6B48202087A
:1009AC00D0E102089B08029A28602B709DF8103049
:1009BC00C2B1EB7085F80280B8F1000F05D008A821
:1009CC000022C5F1010C97420ED1C5F101030DF1C6
:1009DC0020094FF0000A0DF1300B0193574512D14D
:1009EC00601B8DE66B70E5E710F8013B190608D526
:1009FC0004EB0C0E03F07F03B6453FF67FAE04F814
:100A0C00013B0132DFE7B8F1000F03D099F9002068
:100A1C00002A17DB029BD3B11AF80B2004F8012B28
:100A2C000022019B98182044B0423FF667AE99F81B
:100A3C000000009904F8010B2046039219F093FE74
:100A4C00039A14440AF1010A09F10109C6E799F85D
:100A5C00002055F822300093029B009845F8223074
:100A6C0019F06EFE421CDCE76FF00D0048E600BF8B
:100A7C002DE9F04F95B0044600AFD7F878B0BB61C4
:100A8C00CBF3C0037A6239623B6151B90378467883
:100A9C00807800EB830020443B6A9E421AD8031BEB
:100AAC003B6294F802A0E37856467B61BAF1000FE2
:100ABC0002D01BF0010F17D17B695BBB7B6A1BB1AA
:100ACC00BA692046396A98473D6A28465437BD466C
:100ADC00BDE8F08F451C284619F032FE3B6A013008
:100AEC00013328443B62D7E794F8008063684FEAEF
:100AFC008802FB6104EB88087B6AFA60002B40F0EB
:100B0C0002813D6AC1460AEB080300264B454ED1D3
:100B1C00D04413E01BF0020FD0D094F800804FEAC1
:100B2C00880304EB8808FB606368FB617B6A002B1D
:100B3C0078D13D6ABAF1000F4ED156461BF0050F25
:100B4C000CBF022301237B627B6908EB430A0BF089
:100B5C0002033B62D045B8D018F8021B18F8013CD0
:100B6C0054F82390AD4B994502D3AD4B994539D3ED
:100B7C003B69002B43D0F86919F026F900283ED0C8
:100B8C00E9468AB06A46A74B5361FB69C2E9063154
:100B9C004FF400731384A44B42F8103F00234FF41E
:100BAC001251A248023D01F011F8CD46D2E719F8D6
:100BBC00012B7B6254F8220019F0C2FDFA6F013050
:100BCC007B6A3AB1D7F8802096423EBFFA6F22F882
:100BDC0016000136054499E71BF004061CBFD044EF
:100BEC007E6AABE73B6923B1F86919F0EDF8002890
:100BFC00C6D11BF0010F05D17B6AED1AAAE73B6A3F
:100C0C00002BA7D0484619F09BFDFB6F43B1D7F8DA
:100C1C0080309E423FBF431CFA6F22F816300136DB
:100C2C00054497E7BAF1000F72D01BF0040672D09E
:100C3C00D146002607F140005246414619F093FD7B
:100C4C007B69D0445B00BB607B6908EB43037B6131
:100C5C000BF002037B607B6998455ED123781BF017
:100C6C00020FFB6108BF4FEA5901637818BF0021DE
:100C7C001BF0010F06EB0302D2B240F09D801BF07B
:100C8C00040F14BF4846002094F802B094F8038077
:100C9C003B616270A0702046E170BA69F9687B6AAA
:100CAC009847051EFFF611AFFB69494684F803808F
:100CBC0007F1400023703B69BA69637084F802B095
:100CCC007B6A9847B0F10008C0F2A3803B6ABA690E
:100CDC00A3EB0A01FB687869C91ABB68C91A7B6A5D
:100CEC0098470028C0F29780A8444FF0000B07F1FA
:100CFC00300A08EB0005B34560D30021BA697B6A62
:100D0C0008469847E1E64FF0000907F1300093E7F9
:100D1C005646D14694E7B14692E718F8021B3F4A73
:100D2C0018F8015C54F82530934202D33C4A9342A4
:100D3C001CD33B6923B1F86919F046F800288AD115
:100D4C007B68F3B909F1280207F1280009F10103C6
:100D5C0009F1020902445FFA89F902F8101C07F143
:100D6C00500252FA83F303F8105C74E73B692BB121
:100D7C00F86919F029F800287FF46DAF1BF0010F0A
:100D8C0009D006F1280207F12801731C561806F841
:100D9C00205CDEB25FE71BF0040F3FF45CAF09F19F
:100DAC00280207F1280109F1010302EB010909F8F6
:100DBC00105C5FFA83F94EE7002065E71BF80A30F8
:100DCC0054F8239087F82F30FB6FFBB133F81B805E
:100DDC00BA69012107F12F007B6A984700281ADBBA
:100DEC000544B8F1000F06D1484619F0A9FC00F1F2
:100DFC0001081FFA88F8BA69414648467B6A984749
:100E0C00002808DB05440BF1010B74E7D7F87C8054
:100E1C00DEE7454659E6054657E600BFB4820208B0
:100E2C00D0E10208C59F0208040000010C8A0208E8
:100E3C00014B1860704700BF0000002430B500253E
:100E4C0087B0044600950595CDE9030103A9054833
:100E5C0000F00AF8DDE904309842B8BF255407B019
:100E6C0030BD00BF239E01082DE9F04F814695B09F
:100E7C008B4617461C460025387808B9284658E397
:100E8C007B1C2528039306D05946C8470028C0F27E
:100E9C0050830135FBE1182200210EA819F06EFCDD
:100EAC007B78252B7DD00023781C98469E469C464B
:100EBC001E46014610F8012B2B2A00F0A18000F2EF
:100ECC009880202A00F09F80232A00F09F802BB16D
:100EDC009DF8403043F040038DF84030B8F1000FDE
:100EEC0005D09DF8403043F020038DF84030BEF122
:100EFC00000F05D09DF8403043F010038DF84030C2
:100F0C00BCF1000F05D09DF8403043F008038DF87C
:100F1C0040302EB19DF8403043F004038DF8403042
:100F2C009DF8403003F04400442803D16FF386133E
:100F3C008DF840309DF840302A2A43F080038DF81C
:100F4C0040307FD19DF841204B1C42F001028DF8BE
:100F5C0041201A782E2A9DF841200CBF0121002136
:100F6C0061F341028DF8412078D15A782A2A6ED04B
:100F7C00013300224FF00A0C194611F8010BA0F1B5
:100F8C003006092E40F295809DF840101292C1F364
:100F9C00400040EAD2700A4660F341028DF84020CE
:100FAC005CE0BA1C8DF8433003929DF84130DA07AF
:100FBC0040F12E8154F8048BB8F1000F07DA9DF83C
:100FCC004020C8F1000842F004028DF840205E0772
:100FDC0040F1278154F804ABBAF1000F80F226815E
:100FEC009DF841306FF341038DF841304FF0FF3ADB
:100FFC001CE12D2A0DD0302A7FF469AF012358E76C
:10100C004FF0010C55E74FF0010E52E74FF001087D
:10101C004FE701264DE70EFB02620346303A1846B5
:10102C0010F8016BA6F1300CBCF1090FF3D9994201
:10103C008FD09DF840101192D20F62F341018DF8C0
:10104C00401086E70B4600224FF00A0EE7E79DF8AA
:10105C004120023342F004028DF841201A786C2AA8
:10106C0047D02BD8682A31D06A2A4BD04C2A51D081
:10107C001A4612F8013B782B03928DF843309DF8F9
:10108C00412000F2BE806D2B51D8692B00F2B98043
:10109C00572B67D8412B03D0453B022B00F2B18074
:1010AC009DF84230042262F302038DF84230012392
:1010BC0073E00CFB02020B46303A5DE7742A25D034
:1010CC007A2AD5D19DF8412006210CE05A78682A5D
:1010DC009DF8412006D1012161F3C60202338DF83F
:1010EC004120C5E7022161F3C6028DF8412001338E
:1010FC00BEE75A786C2A9DF8412001D10421EBE718
:10110C000321F0E79DF841200521ECE79DF84120F3
:10111C000721E8E7BDF8402022F4F04222F0020259
:10112C0042F4804242F00202ADF84020DFE76E3B11
:10113C00D9B201238B4040F282410B4237D113F0DC
:10114C00240F51D1D8075CD59DF84230032161F3AF
:10115C0002038DF8423002F07803A3F140014B42B8
:10116C004B411AE0A3F158010120C9B200FA01F178
:10117C0011F4624F94D140F6010631421DD111F4A5
:10118C00043F3ED09DF8423060F3020302F0780237
:10119C008DF84230402A34D000239DF84020C2F311
:1011AC0040010B4363F341028DF84020FDE69DF8AE
:1011BC004230022161F30203E8E79DF8421002205D
:1011CC0002F0780260F30201402A8DF8421002BF4F
:1011DC009DF8401041F001018DF84010632BDBD1DC
:1011EC00131E18BF0123D8E79DF84230032112F0DB
:1011FC00780F61F302038DF8423014BF01230023F2
:10120C00CBE79DF8403043F001038DF84030C3E745
:10121C009DF94020002AB4BFDDF844804FF0FF3820
:10122C00D5E698077FF5E2AEDDF848A000239DF8DF
:10123C004110CDE911339DF84230C1F3C30103F0E5
:10124C000703012B33D1CB1E042B04D8DFE803F0AA
:10125C00214646212100236801294FEAE372CDE99A
:10126C000E321CD19DF93830DA17CDE90E32043428
:10127C009DF8403013F0030650D0039B3A46594674
:10128C00484618F01FFF0028C0F253810544039F05
:10129C00F2E554F8043BDA17CDE90E32E8E70229FF
:1012AC00E5D11AB243F3C033CDE90E23DFE7022BAD
:1012BC0024D1CB1E042B04D8DFE803F0181010182F
:1012CC001800012954F8043B4FF0000214D00229F5
:1012DC00CDE90E32CCD19BB20E93C9E7073424F082
:1012EC000704F4E80223CDE90E23C1E754F8043BCC
:1012FC000E9300230F93BBE7DBB2CDE7042B08D191
:10130C00073424F00704D4E900230834CDE90E2374
:10131C00AEE7032BACD154F8043BDDE79DF843005A
:10132C007828B4D862281CD825283FF4ADAD5828AD
:10133C00ADD10DF1360310AA009308ABDDE90E0117
:10134C0018F07AFEBAF1000F074680F29A80002F4F
:10135C009DD00DF13603D81B002E00F0C18001305A
:10136C00BEE06338152892D801A252F820F000BFD5
:10137C0051140008631400089B1200089B1200080B
:10138C009B1200089B120008631400089B120008B3
:10139C009B1200089B1200089B120008F114000815
:1013AC0089140008AF1400089B1200089B12000857
:1013BC00D51300089B120008891400089B12000822
:1013CC009B12000889140008BAF1000F0E9F35DB40
:1013DC005146384619F0EBF907EB000A002F3FF4A1
:1013EC0056AF00269DF8423013F01002059200F023
:1013FC00938002305B06119A48BF129B10440492F2
:10140C0048BFC018B8F1000F40F39F809DF84020F2
:10141C00A8EB0008C2F380035007069300F19580F7
:10142C00510640F189803EB159463046C8470028E4
:10143C007FDB069B01351E4630227EE0384619F0D4
:10144C007FF9C9E70E9B002608AF0DF1210A012098
:10145C008DF82030C6E7190756BFC3F300132B26AF
:10146C005E01DDE90E23002BBFF663AF52424FF055
:10147C002D0663EB4303CDE90E235AE7002658E70C
:10148C0000260DF136039DF84020DB1B6FF386120E
:10149C009A458DF840207FF65AAFAAEB03031193BF
:1014AC0055E70E9890B30DF1360310AA0021009366
:1014BC0008AB18F0C1FDBDF84230BAF1000F074679
:1014CC0003F0EF0343F4F04343F01003ADF8423064
:1014DC00D6DA00283FF4DBAE0DF136030026181ADD
:1014EC009A467FE70E9B07293FF6D1AEDFE801F065
:1014FC000C04060C08080C0C1D70C8E61D80C6E612
:10150C00EA17C3E90052C2E61D60C0E62E4F06463C
:10151C00052007F1050A65E71A0748BF013069E79E
:10152C001046079306925946C8470028DDE9062362
:10153C0004DA15B0BDE8F08F202243461946013B72
:10154C000029EDDC454498466D1A2EB159463046BB
:10155C00C8470028EDDB01359DF84230DA0601D48E
:10156C001B0705D559463020C8470028E1DB01355B
:10157C00059B33B159469DF84300C8470028D8DB7A
:10158C000135049E2E4405E059463020C8470028FA
:10159C00CFDB0135731B002BF6DC53463A4659461C
:1015AC00484618F08FFD0028C3DB0544A844A8EB7F
:1015BC000503002B7FF76BAE59462020C847002847
:1015CC00B7DB0135F3E700BF79A00208324B70B5E9
:1015DC005A6912F4003211D1BFF34F8FBFF36F8FE2
:1015EC00C3F85022BFF34F8FBFF36F8F5A6942F489
:1015FC0000325A61BFF34F8FBFF36F8F264A536986
:10160C00D90327D4536913F4803323D1C2F884301F
:10161C00BFF34F8FD2F8803043F6E074C3F3C900A8
:10162C00C3F34E335B0103EA0406014646EA8175B7
:10163C000139C2F86052F9D2203B13F1200FF2D1DC
:10164C00BFF34F8F536943F480335361BFF34F8F14
:10165C00BFF36F8F114B124A1A60124BDA6822F0EB
:10166C00070242F00202DA609A6942F440429A613F
:10167C009A699204FCD50C4B1A6841F20303B3EB44
:10168C00124F06D1094AD2F8083143F00103C2F8CF
:10169C000831002070BD00BF00ED00E09C0000246C
:1016AC000090D003004802580010005C00800051EC
:1016BC002DE9F047044607464FF00109DFF850804A
:1016CC0014B93846BDE8F08794FAA4F5B5FA85F557
:1016DC0009FA05F32E0108EB05156FEA030A24EA53
:1016EC0003042B7B002BEBD058F806301B694BB94D
:1016FC0046440422284607EA0A077368196800F072
:10170C0051FADDE7284698470028D9D1F0E700BF09
:10171C00648A020830B5002289B00F490F4826F0C0
:10172C008DFD0022002300240D4D0E492846009407
:10173C00CDE906230E234FF44072CDE90334CDE9F5
:10174C000144094B17F0EAFC0849284626F072FCC4
:10175C00204609B030BD00BF7D1700086806002484
:10176C00E0010024400E01245D1A0008ACA0020820
:10177C00014817F049BD00BFCC0100242DE9F0470A
:10178C0080461E480F4618F01DFF064678B300250C
:10179C002846BDE8F087237B73B12368DB680BB167
:1017AC002046984723681B69CBB9636804222046FE
:1017BC00196800F0F7F9013610344C45EBD3B8F149
:1017CC00000FE5D0002DE2D02846FFF771FF05464B
:1017DC00002FF7D00021642017F0DEFFF2E720463F
:1017EC0098470028E1D00AFA06F31D43E3E7044CBE
:1017FC000546DFF810904FF0010ADEE7E00F0024F9
:10180C00648A0208748A0208014B53F8200070475E
:10181C000C8B020808B5034608462BB1044A13602A
:10182C0000F074FC002008BD6FF01500FBE700BF52
:10183C000400002410B5044C237813B9034817F0A6
:10184C00E3FC0123237010BD240D0124CC010024E2
:10185C0010B50446084818F0B5FE5CB1074BBFF351
:10186C005B8F53E8001F013943E80012002AF8D1BE
:10187C00BFF35B8F10BD00BFD80F0024DC0F00241A
:10188C000020064BBFF35B8F014653E8000F43E883
:10189C000012002AF9D1BFF35B8F7047D80F0024D8
:1018AC0070B5FFF7EDFF084C0546084EB44200D367
:1018BC0070BD63685B792BB123685B6813B12946F3
:1018CC00204698471034F1E7648A0208748A0208AB
:1018DC0010B5044C0449204618F005FD034B1C6060
:1018EC0010BD00BF7C010024F88A0208D00F002430
:1018FC0008B5084A00234FF47A7107481370074A59
:10190C001360074A1360FFF785FFBDE80840FFF737
:10191C00DFBF00BF250D0124EBA50108D80F002463
:10192C00DC0F0024014600220023014818F0FCBC07
:10193C007C010024014818F095BD00BF7C010024F7
:10194C00024B0146186818F0DFBD00BFD00F002411
:10195C00014818F015BE00BF7C010024254B70B562
:10196C001878002844D0FFF7E5FF054690B1224BCC
:10197C00BFF35B8F53E8001F013943E80012002AC4
:10198C00F8D11E4CBFF35B8F1D4EB44226D32846B4
:10199C00FFF7D6FF1B4B1C4C1B68002B12DD26F0EF
:1019AC004BFC0A220023FEF78BFCD4E90032C01A50
:1019BC0040F2E93361EB0201984271F1000101D36D
:1019CC00FFF76EFFD4E9003213F57A7342F100028F
:1019DC00C4E90032BDE87040FFF7BABF63685B79B9
:1019EC0023B12368294620461B6898471034CCE75E
:1019FC0070BD00BF240D0124DC0F0024648A020892
:101A0C00748A0208D80F00246006002470B50D4DAE
:101A1C00297861B90C4C01200C4EFFF7AFFEB44293
:101A2C0006D3FFF79BFF0028FBD101232B7070BD61
:101A3C0063685B791BB1236820469B689847103418
:101A4C00EDE700BF250D0124648A0208748A0208A0
:101A5C0000212DE9F0470846FFF790FE044648B3F5
:101A6C004FF4FA784FF0000917F0AEFE1A4B1860DD
:101A7C0030B11A4B1B68092B02DD194817F0C4FB57
:101A8C000025184FDFF858A044B12046FFF710FE90
:101A9C00044618B94FF0FF384FF0FF39FFF75EFFDF
:101AAC00064628B9B5B942464B46504617F0D0FB0E
:101ABC003546E9E74FF0FF384FF0FF39D4E72B6894
:101ACC009B691BB100222846114698471035BD4230
:101ADC00F5D3E8E7044DFAE7D40F0024DC0F00241B
:101AEC00CC010024748A0208648A020813B51848D1
:101AFC0018F068FD174B1B787BB14FF01003EFF318
:101B0C00118483F31288BFF36F8FFFF727FF84F3E1
:101B1C001188BFF36F8F02B010BD0F4B1B68002BE9
:101B2C00F9D050B9002200230C48CDE9002342F231
:101B3C001072002318F088F8EDE70928EBD107485C
:101B4C0026F088FB064802B0BDE8104017F05CBBDD
:101B5C00DC0F0024250D0124D40F0024680600247A
:101B6C00CC010024064B10B504461B68984721464F
:101B7C00A060044818F056FCBDE81040FFF7B6BF53
:101B8C00040000247C010024044A054B9B1AB1EB91
:101B9C00D30F34BF52F8310000207047048A02087A
:101BAC00648A0208084BC31A1B1110B40133446831
:101BBC00237143689A7101224368196043685A7112
:101BCC0010BCFFF737BE00BF648A02082DE9F04F46
:101BDC008FB0C1F34A280D46914604AF0C0DB86086
:101BEC007B60B8F1000F63D0002607F114034FF0AF
:101BFC00040B4FF00A0AC7F80C8032467E62484646
:101C0C00C7E90766019307F11C03CDF808B0CDF8BE
:101C1C0000A0F968FEF72CFFB0F5006F03461CD34B
:101C2C006C468AB0D9F8041004AB26481A46C3E9AE
:101C3C00050140F2FF71D9614FF400711984224BF8
:101C4C0042F8103F4FF4125133462048FFF7BEFFC5
:101C5C00A5462C37BD46BDE8F08FC0F30A0804F149
:101C6C0017003B60184468F3532520F007008008E8
:101C7C00FFF758FE044690B13B6800F11001144A7E
:101C8C004846F961C7E9083607F11403CDF808B0E6
:101C9C00CDE900A307F11C03F968FEF7E9FE68F330
:101CAC0053257B68B96820462A4618F0C9FCD0E752
:101CBC0004F1170020F007008008FFF733FE0446FC
:101CCC00EDE700BFC1A0020804000001248A02084D
:101CDC0021A601082DE9F04F87B004460F46934624
:101CEC009846DDE91269DDE9105AA6B31021334696
:101CFC0052460020CDF80090CDF81490FEF7E6FC8B
:101D0C00014604F0070405F117000BF0070B134B09
:101D1C00E400084403EA4123039144EA8B1420F0C5
:101D2C0007001C438008FFF7FDFD44EA05540546F7
:101D3C0040B13EB13346524603991030CDF8009075
:101D4C00FEF7C4FC434622463946284607B0BDE898
:101D5C00F04F18F075BC3146D3E700BF00FE0F0002
:101D6C000EB403B503AB0146054853F8042B01939D
:101D7C0018F08CFC02B05DF804EB03B0704700BFA8
:101D8C00C1A60108CA0605D48B064CBF02490349FB
:101D9C00FFF7E6BF704700BFB19F0208B09F020873
:101DAC002DE9F04F89B09B4604460D469DF848300E
:101DBC0006920493DDE91393DDE915760593049BF4
:101DCC00002B00F0878006F0080306F0020A079348
:101DDC0018F01EFC024600284BD086492046FFF71F
:101DEC00BFFF8046BAF1000F08D016F0440F42D165
:101DFC002A4681492046FFF7B3FF804406F00103D1
:101E0C005BB17E4B2046049A7D4953F822207D4BD2
:101E1C00002A08BF1A46FFF7A3FF06F00803002BA1
:101E2C0055D0794B2046049A784953F82220FFF775
:101E3C0097FF0546069B2BB11A4675492046FFF7BE
:101E4C008FFF0544BBF1000F05D05A46714920465F
:101E5C00FFF786FF05444544B9F1000F49D1002F27
:101E6C004FD1F30700F1C08031462046FFF78AFFBF
:101E7C00B4E08046B6E7684B18680028BDD0674BC5
:101E8C004FF47A7E4FF461623C211B68B5FBF3F58D
:101E9C00B5FBF0F300FB13550EFB05F5B3FBF2FAA3
:101EAC00B5FBF0FC02FB1A3200FB1C55B2FBF1F344
:101EBC000EFB05F501FB13225949B5FBF0F5009219
:101ECC0020465246CDE901C5FFF74AFF95E706F0DB
:101EDC000805AFE7BBF1010F06D1B9F1000F64D1D2
:101EEC00002F7BD000250CE0B9F1000FF8D04D4845
:101EFC005CE04D484B4622464C4917F034FF002F0E
:101F0C0068D0DFF82C91DFF82CA1102F4FF0000BCC
:101F1C0031462046B84628BF4FF01008FFF732FF75
:101F2C005D4545DC059B4FF0010B514620461A7868
:101F3C00FFF716FF1BF0070F03D149462046FFF7AA
:101F4C000FFFD8453BD9059B5146204613F80B2073
:101F5C00FFF706FF0BF1010BBBF1100FEAD14FF0AD
:101F6C00000B35492046FFF7FBFE5A46059B2046E1
:101F7C009A5CA2F120015F29304928BF2E22FFF77D
:101F8C00EFFE0BF1010BBBF1100F1DD01BF0070F77
:101F9C0003D149462046FFF7E3FED8455A46E5D81B
:101FAC0049462046FFF7DCFEEBE71F48049DA1E7FE
:101FBC00494620460BF1010BFFF7D2FEB0E7204952
:101FCC002046FFF7CDFEC5E7059BB7EB080743445A
:101FDC0005939AD1049B002B7FF443AF204609B0A4
:101FEC00BDE8F04F18F059BB064A20460449FFF7EC
:101FFC00B7FE39E705A1020809A102081C8B0208EB
:10200C0065AC020800A10208308B02082EA1020860
:10201C0034A1020838A10208E80F0024E40F0024C0
:10202C0012A10208F7A60108C1A6010899A6010889
:10203C0045A102083DA1020847A1020849A10208D6
:10204C0043A102082DE9F0410F8886B04B68054684
:10205C000C4690468E68C7F382175BB1144A9B1AE4
:10206C0043F3CF01002920DB2078C0F3C200FFF737
:10207C008BFD03462146608851F8102BC0F30B10E2
:10208C000097C2F34A22002A01EB02044FF000022F
:10209C0008BF0021CDE90308CDE9011428463146DB
:1020AC00FFF77EFE06B0BDE8F0810023E2E700BF3B
:1020BC00048A020842F20F73114A8B4273B504462C
:1020CC0028BF0B4605680521684617F0C3FE6368F8
:1020DC0006460B2228465B680A4918F0CAFA636860
:1020EC003246694628465B6818F0C3FA63681B22BF
:1020FC0005495B68284618F0BCFA02B070BD00BFF9
:10210C001EE1020868A102084CA10208002101236B
:10211C00064A904206D8064A01B901231360054BC2
:10212C0018607047400801215B00F2E740420F0045
:10213C00E40F0024E80F0024014B002019607047C5
:10214C0000100024024B012202481A7018F0A5BAA4
:10215C00270D0124608B02080148FFF7ABBF00BFBD
:10216C00608B0208064B10B50C461868FFF74CFB49
:10217C000F22034621460348BDE81040184700BF14
:10218C0000100024608B0208F8B50D460446461872
:10219C00054FB44201D12846F8BD14F8011BBB68A9
:1021AC0001485B689847F4E79C84020801491022B7
:1021BC000A60704710ED00E072B6404080F3118861
:1021CC00BFF36F8FBFF34F8F30BF62B6BFF36F8F0C
:1021DC00704700BF2DE9F047814600AF0C4600293F
:1021EC004CD06E468AB0A3686D46D1E900122748E0
:1021FC004FF0050AA846C5E90501C5E9072348F8CB
:10220C0010AF002342464FF421512148FFF7DEFC6A
:10221C00B5466369AD46D4E903121E48C5F810A053
:10222C00C5E90501C5E90723002342464FF42151B6
:10223C001748FFF7CBFCB546E36988B06D46164AE4
:10224C004FF0030AA846C5E9052348F810AF002350
:10225C0042464FF4C2510E48FFF7B8FCB546A3698D
:10226C00AD460E4AC5F810A0C5E905230023424629
:10227C004FF4C2510648FFF7A9FCB5462146484623
:10228C0016F094FDBD46BDE8F08700BFAEA1020874
:10229C004C8A0208DDA102080CA202081BA202084B
:1022AC0000B2002807DB0123410900F01F00024A9D
:1022BC00834042F82130704700E100E000B2013168
:1022CC0000284FEA0111C9B206DB00F1604000F5AD
:1022DC00614080F80013704700F00F00014B195457
:1022EC00704700BF14ED00E030BFFFF7FDBF00BF2B
:1022FC000F4A08B522F07F020E4B9A60BFF34F8F46
:10230C00BFF36F8FD3F8882022F47002C3F88820B3
:10231C00EFF3148323F0040383F31488BFF36F8F5C
:10232C0016F002FE17F0B6FA00F0C4FB16F058FED9
:10233C000000000800ED00E0094A0A4993680968AA
:10234C005867996708494B6843F080534B600023EA
:10235C0083F31188BFF36F8F9368986F704700BF3A
:10236C00C40C0124249B020800ED00E012498A6889
:10237C004FF030001044EFF3098C80E8F01F102070
:10238C0080F31288BFF36F8F0C4F4FF000664A69D1
:10239C008A603E60506F0023536780F3118804B548
:1023AC00104600F0CBFBBDE8044002F1300090E891
:1023BC00F01F8CF309887047C40C012404ED00E075
:1023CC001EF0040F0CBFEFF30880EFF30980816956
:1023DC0011F8021C0229FFD001B518F095F901BDC6
:1023EC0042F8203C203A009B07495360019B21F0A6
:1023FC0001019360029B9161D3604FF08073D361B4
:10240C0000230265436770477B9E0108094A034617
:10241C00906870B113F1160F406E05D0A0F1400218
:10242C009A4205D8834203D2814228BF00207047CC
:10243C0000207047C40C012408B5094B0D46144606
:10244C00986000F07BFB204685F30988002163B679
:10245C0081F31188BFF36F8F0022002317F007FD63
:10246C00C40C012401B5EFF30580A0F110004FEA74
:10247C00C0000449014409C99847BDE8014002491C
:10248C0008470000EC84020899240008044B996862
:10249C005869884203D003494FF080520A60704754
:1024AC00C40C012404ED00E02DE9F04186B0064691
:1024BC000D4600AF474B02244FF4825107F1100236
:1024CC007B6145483C6118F02EF9444B9B6AD9045A
:1024DC006DD5434B07F110023F484FF48251C7E9C9
:1024EC00044318F020F917203C4B9B6A1A050BD5B6
:1024FC003C4B07F1100238484FF482517B610223A8
:10250C003B6118F010F91820344CA36A9B0523D5B5
:10251C00E846354B07F110022F484FF482517B618E
:10252C0002233B6118F0FFF8A36BA26A100412D5CA
:10253C0088B06A462D492848C2E9051303234FF495
:10254C00C25142F8103F18F0EEF8C5461EB1A36A0E
:10255C0023F40043A3621920204B9B6A59050BD529
:10256C00234B07F110021C484FF482517B6102236C
:10257C003B6118F0D8F81A20184B9A6AD20518D576
:10258C001C4B07F1100214484FF482517B6102235B
:10259C003B6118F0C8F81B20104A1837936A43F4B3
:1025AC007F43936200232B70BD46BDE8F08116205B
:1025BC009AE79B6A9B04EFD50F4B07F11002064874
:1025CC004FF482517B6102233B6118F0ACF81C2064
:1025DC00E2E700BF49A202084C8A020800ED00E0C5
:1025EC005FA2020870A2020883A202089CA2020841
:1025FC00B1A20208CCA20208E4A2020810B586B06F
:10260C00364B022404AA4FF48251354805930494A6
:10261C0018F089F8334B9B6A9A015DD5324B04AAAA
:10262C002F484FF48251CDE9044318F07CF81E205A
:10263C002C4B9B6ADB010AD52C4B04AA28484FF47F
:10264C00825105930223049318F06DF81F20254B3B
:10265C009B6A1C030AD5264B04AA21484FF48251CD
:10266C0005930223049318F05EF821201D4B9B6AFE
:10267C0059030AD51F4B04AA19484FF482510593EC
:10268C000223049318F04FF82220164B9B6A9A03EE
:10269C000AD5194B04AA12484FF482510593022310
:1026AC00049318F040F823200E4B9B6ADB030AD5E9
:1026BC00124B04AA0A484FF4825105930223049347
:1026CC0018F031F82420074A936A6FEA03436FEA43
:1026DC001343936206B010BD1D20A9E713A3020893
:1026EC004C8A020800ED00E02BA302083EA302086E
:1026FC0058A3020876A302089BA30208B5A30208FC
:10270C002DE9F04786B081468A46904600AF514B82
:10271C00022407F110024FF482517B614E483C6158
:10272C0018F001F84D4B9B6ADE0645D54C4B07F172
:10273C0010024FF482514848C7E90443112417F0A2
:10274C00F2FF464B9B6A1D070BD5464B122407F133
:10275C0010024FF482517B6102233F483B6117F01A
:10276C00E2FF3E4DAB6A980728D56C463E4B4FF4C2
:10277C00825107F1100238487B6102233B6117F04C
:10278C00D2FF6E6BAB6A190660D588B06A46374BC0
:10279C004FF4C2513048C2E90536032342F8103FCA
:1027AC0017F0C1FFA546BAF1000F03D0AB6A23F0B6
:1027BC008003AB62132403E01024C2E76FF015060C
:1027CC00264B9B6ADA070BD5294B142407F1100210
:1027DC004FF482517B6102231F483B6117F0A3FF2A
:1027EC001E4B9B6A9B060BD5224B152407F110023E
:1027FC004FF482517B61022317483B6117F093FF22
:10280C00164B9A6AD50602D49A6A90070AD55B6869
:10281C00190507D549463046FFF7F8FD10B180F38E
:10282C00098802240D4B9A6A920603D55A6A22F43F
:10283C0000525A629A6A2046183742F0FF029A6296
:10284C00002388F80030BD46BDE8F0876FF0150610
:10285C00B0E700BFE0A302084C8A020800ED00E0DC
:10286C00F6A3020870A2020829A4020841A40208D7
:10287C0057A40208E4A202082DE9F043774B8BB071
:10288C0005460026D3F8048000AFC8F3080486F38D
:10289C001188BFF36F8F02F07F43B3F17F4F0ED1DE
:1028AC0002F00C03082B19D16D4B07F118024FF4F1
:1028BC0082516C48FB610223BB6117F034FF002688
:1028CC0035460023FB71E31E092B00F2A680DFE8DE
:1028DC0003F00A999C95A4A4A4A4A49F10074CBF30
:1028EC000D460126EDE7E9465F4B4FF0020807F174
:1028FC0018024FF48251FB615A48C7F8188017F040
:10290C0012FF564C0023FB71E36A9A070BD5574B09
:10291C00C7E9068307F118024FF48251514817F0AA
:10292C0002FF002441E0E36A002B01DA504BEFE791
:10293C00E36A5B00F5D54F4B07F118024FF4825157
:10294C004848C7E9068317F0EEFE6369AA6943F4A9
:10295C0080736361BFF34F8FBFF36F8F636932F87E
:10296C00022C23F480736361BFF34F8FBFF36F8F1F
:10297C004DF602739A4208D0A36ADBB28BB3FA1DF0
:10298C0001212846FFF7BCFE3AE088B02B686A4666
:10299C0039493448C2E9051303234FF4C25142F8B4
:1029AC00103F17F0C0FECD462C68FB79ABB9202246
:1029BC00294607F1080017F0D6FE7B6A002E47D097
:1029CC00C3F3080222B96FEA53236FEA43237B62F5
:1029DC0007F108012046FFF7FDFB2C37BD46BDE88B
:1029EC00F083A36A13F47F4F04D0F91D0120FFF785
:1029FC005BFD05E0A36AB3F5803F92D3FFF7FEFDC4
:102A0C000446D2E7FA1D0021BBE7F91D0020EEE7D2
:102A1C001A4BFB610223BB617CE718F4F87F184A60
:102A2C00E8468AB0174B18BF13466A461649103C45
:102A3C000C48D461C2E905134FF400734FF41151E3
:102A4C001384124B42F8103F17F06DFEC54668E731
:102A5C0023F4FF7323F00103B9E700BF00ED00E09E
:102A6C00A4A402084C8A0208CFA40208E6A4020817
:102A7C0007A5020815A5020834A5020850A50208EE
:102A8C008BA4020876A4020874A5020804000001B5
:102A9C00024A536943F010035361704700ED00E0A4
:102AAC00EFF30880EFF3098101B57246FFF7E4FEFE
:102ABC0001BD00BF002304481021C2180133A32B11
:102ACC0082F80013F9D1704700E100E0102080F388
:102ADC00118808484FF40461401880F30988EFF31B
:102AEC0014800221084380F31488BFF36F8FFFF723
:102AFC00FFFB000080110124084B9B6883420BD123
:102B0C00EFF3058343B1064B5A6842F080525A608A
:102B1C005A6A22F400425A6216F05CBEC40C0124BC
:102B2C0000ED00E0024B0121024A034800F092B88C
:102B3C000000052400000024708B0208426E402126
:102B4C00044B403A18461A60034AC3E901120121AA
:102B5C0000F08AB80410002400000B152DE9F04198
:102B6C009C4600AF15460023DFF8ACE08B421ADA26
:102B7C004468002C4DD0BCF1000F1DD0661E3442B1
:102B8C0015D06C4688B06A462449C2E90513032364
:102B9C0042F8103F00234FF4C25121486FF0150545
:102BAC00FFF714F8A5462846BD46BDE8F0811F2C5A
:102BBC00E7D902681642E4D1202C5FFA85F8026846
:102BCC00866814D9B4F1004F13D8013CB4FA84F4DC
:102BDC00C4F11F046400B8F10F0F46EA04060AD9C9
:102BEC006C4688B06A460F4BC2E90535CFE708241E
:102BFC00F1E73E24EFE722F01F02CEF8985046F0A2
:102C0C0001062A43013542F01002CEF89C20CEF882
:102C1C00A06001330C30A9E700ED00E08BA50208A1
:102C2C00448A0208AEA50208044B0522C3F894207E
:102C3C00BFF34F8FBFF36F8F704700BF00ED00E005
:102C4C00BFF35F8F024B0022C3F89420704700BF84
:102C5C0000ED00E010B5034C01232278FFF77EFF56
:102C6C00207010BD280D0124094A08B500231278E4
:102C7C00FFF774FF10F1160F03D0064B00220F283C
:102C8C0000DD08BDC3F898000130C3F8A020F6E7BA
:102C9C00280D012400ED00E014490868102810B537
:102CAC0021D8FFF7CDFF124C49680022904201F168
:102CBC000C0105D10F4B18700020FFF7B5FF10BDAC
:102CCC00C4F8982051F80C3C23F01F031343013235
:102CDC0043F01003C4F89C3051F8043C43F001035A
:102CEC00C4F8A030E2E74FF0FF30E8E7B48A0208FE
:102CFC0000ED00E0280D0124014B1860704700BF67
:102D0C00080000240CB410B586B009B90DF10B0005
:102D1C00002409AB089A00940393CDE9040104A99B
:102D2C000448FEF7A1F8049B1C7006B0BDE81040E7
:102D3C0002B07047A1A7010810B586B009B90DF112
:102D4C000F000024CDE90401009404A90348FEF708
:102D5C008BF8049B1C7006B010BD00BFA1A7010826
:102D6C002DE9F041054600244FF001084FF0B04624
:102D7C000E4F2B7853FA84F01F280FDC08FA00F35F
:102D8C00D6F8882033EA020208D1C6F8883057F802
:102D9C0030301BB107EBC0025168984701346A7898
:102DAC00E3B29A42E5D2BDE8F08100BF10100024D6
:102DBC00044B03EB40000023013320F8022B994213
:102DCC00FADC704730010024084B02464FF0B0414A
:102DDC0010B433F910000123D1F880409340234301
:102DEC00C1F8803010BCFFF75BBA00BF3001002483
:102DFC000A4B30B553F830408C4204D103EBC0057C
:102E0C006D68954205D034B943F8301003EBC0031C
:102E1C005A60002030BD6FF00F00FBE7101000244B
:102E2C00034B002243F8302003EBC0035A60704779
:102E3C0010100024044B05489B6A03F00303022B7B
:102E4C0018BF0020704700BF0044025800127A00DF
:102E5C0008B50A4B1B6903F03803102B09D0182B4B
:102E6C0009D1FFF7E7FF40F21313800858434008DD
:102E7C0008BD0348FBE70020F9E700BF00440258F7
:102E8C0000127A0010B50A68102A23D8134BD340CD
:102E9C00DB071FD54A68D3B2C2F34234C2F3042213
:102EAC0003F1B04304FA02F203F51133186820EA77
:102EBC0002021A604968CBB2C1F30242C1F3042189
:102ECC0003F1B0438A4003F5113318680243002024
:102EDC001A6010BD6FF08500FBE700BF0E3C0100CF
:102EEC0008B5324B18680B68102B2DD813B96FF03E
:102EFC00850028E0013B0F2BF9D801A151F823F0F4
:102F0C008D2F00089B2F0008AB2F0008FB2E00080C
:102F1C00FB2E0008FB2E0008FB2E0008FB2E0008E1
:102F2C00FB2E00084D2F0008772F0008832F000878
:102F3C00892F0008FB2E0008FB2E00087D2F0008AF
:102F4C001B481060002008BDD42B0CD0D83B1C2B88
:102F5C00CDD8012101FA03F316490B421DD140F2E1
:102F6C0011110B42C3D04008EBE74FF40040E8E7E7
:102F7C00FFF76EFFE5E74FF4FA40E2E70E48E0E7B3
:102F8C00FFF758FF40F2131380085843D9E7FFF7B7
:102F9C0051FF40F21313800858438008D1E7FFF724
:102FAC0049FF40F2131380085843DCE79C000024CF
:102FBC0000127A0000101111006CDC027D4B37B549
:102FCC00D3F8E02042F00072C3F8E020D3F8E02000
:102FDC0002F000720192019A1A6842F480221A607F
:102FEC001A6842F480321A601A689403FCD55A6F3E
:102FFC0042F001025A676F4B5A6F9007FCD56E492D
:10300C000A6842F480720A601A6F22F018021A677A
:10301C001A6F42F001021A67664B1A6F9107FCD5C2
:10302C001A6842F480521A601A689204FCD51A6924
:10303C0002F03802182A17D11A68550707D41A68F3
:10304C0042F001021A605B4A13685C07FCD5594BCD
:10305C001A6922F007021A611A6912F0380FFBD1B3
:10306C009A6922F00F029A61524B1A6822F0807210
:10307C001A609A6A22F0030242F002029A629A6A79
:10308C0022F47C7242F040029A62DA6A22F00C025C
:10309C00DA62DA6A42F00202DA621A6B22F4FF7226
:1030AC0022F0010242F489721A63DA6A22F00102F8
:1030BC00DA621A6B22F47E421A63DA6A42F48032C4
:1030CC00DA621A6B22F4FE0242F440321A63DA6AB4
:1030DC0042F40032DA621A6B22F0FE4242F0807245
:1030EC001A63DA6A42F48022DA621A6842F0807259
:1030FC001A601A689001FCD52F4BDA6822F007028F
:10310C0042F00202DA609A6922F440429A619A69AA
:10311C009104FCD5294DFFF79BFE0446A84202D82A
:10312C00274801F0A9F9234B9A6922F470629A613D
:10313C009A6922F00F0242F008029A61DA6922F0D1
:10314C00700242F04002DA61DA6922F4E06242F481
:10315C008062DA619A6922F0700242F040029A6150
:10316C001A6A22F0700242F040021A621A6922F0C6
:10317C00070242F003021A611A6902F03802182A97
:10318C00FAD1AC4202D90E4801F076F90A4BDA6852
:10319C0022F0070242F00202DA609A6922F44042FD
:1031AC009A619A699204FCD5064B0020064A1A6073
:1031BC0003B030BD0044025800480258BF2A6410C6
:1031CC00C02A64109C0000248055C82008B507480C
:1031DC0024F012FF38B10648FFF78EFD0448FDF7C6
:1031EC0027FE002008BD6FF01200FBE79C8402084C
:1031FC00013200080A2838B50446074D04D1AB68E3
:10320C000D2128465B689847AB68E1B202485B68C1
:10321C009847204638BD00BF9C8402087FB5074BF9
:10322C0004AA4FF48251064805930223049317F025
:10323C00B0FB6FF0850007B05DF804FB0DA602082B
:10324C001C8A02087FB5074B04AA4FF4825106482A
:10325C0005930223049317F09CFB6FF0850007B0D5
:10326C005DF804FB26A602081C8A02087FB5074BF2
:10327C0004AA4FF48251064805930223049317F0D5
:10328C0088FB002007B05DF804FB00BF3CA60208D9
:10329C001C8A02087FB5074B04AA4FF482510648DA
:1032AC0005930223049317F074FB6FF0850007B0AD
:1032BC005DF804FB64A602081C8A02087FB5074B64
:1032CC0004AA4FF48251064805930223049317F085
:1032DC0060FB6FF0850007B05DF804FB83A6020865
:1032EC001C8A0208F0B587B00546466800AF7068C6
:1032FC0024F082FE80B95B4B7B6102236FF01204D9
:10330C0007F110024FF4825157483B6117F041FB13
:10331C0020461C37BD46F0BD306918B124F06CFE58
:10332C000028E8D0F06924F067FE08B94F4BE3E7BA
:10333C004FF4003106F11C0017F0EFFA041E0FDAFF
:10334C006D4688B06A464A4B4FF4C2514648C2E9B2
:10335C000534032342F8103F17F01BFBAD46D7E7AB
:10336C00706A88B124F048FE08B9424BC4E74FF4A8
:10337C00B01106F1240017F0D0FA041E04DA6D46E1
:10338C0088B06A463C4BDFE76C68636A83B12434CF
:10339C000121204617F00BFB00210A2016F0FCF946
:1033AC000021204617F003FB3220002116F0F4F91F
:1033BC000023012128461A4617F00DFB041E04DADF
:1033CC006D4688B06A462D4BBEE70021322016F0C0
:1033DC00E3F9284617F0F2FB6E68284696F82C3075
:1033EC00002B14BF0121102117F054FB041E14DB19
:1033FC00F18D29B15A2915D0B42914BF032102210A
:10340C00284617F014FB041E07DB96F834305BB922
:10341C00F36B28469847041E0FDA6D4688B06A464F
:10342C00174B91E70121EBE70023212128461A468F
:10343C0017F0D1FA041EEBDAEFE70023112128462E
:10344C001A4617F0C8FA041E06DB4FF496600021EA
:10345C00002416F0A1F95BE76D4688B06A46094B6B
:10346C0072E700BF9EA602081C8A0208B6A60208D4
:10347C00D9A6020804A7020820A7020844A702083C
:10348C006FA7020890A7020838B503690446586074
:10349C00084D284624F0B0FD40B161682846AB6861
:1034AC000C311B68984700EAE07038BD6FF01200D1
:1034BC00FBE700BF84830208F7B517460C461D4690
:1034CC004668B7F5001F026928D101F003030F22EB
:1034DC0004339B009A4042EA9102374902F00303FD
:1034EC00023351F82310130C93FAA3F3B3FA83F3BA
:1034FC0001EA124203F01F0322FA03F3B2689A4264
:10350C0009D1204617F0A5F92046FFF789FC0021C8
:10351C00204617F0ABF9002003B0F0BDB7F5800FD3
:10352C0044D026492046FFF763FC002841D1244AA9
:10353C006B46B66892E8030083E8030021481946FD
:10354C00826812689047D8B904F003030F21043342
:10355C009B00994041EA940101F003030A0C92FA92
:10356C00A2F29B00B2FA82F203F1B04302F01F0206
:10357C00D3F80804964020EA11410E43C3F80864BE
:10358C00B5F1806F0ED0B5F1C06F0DD005F17E4353
:10359C00594259414900204617F068F92046FFF777
:1035AC0013FCB8E70121F6E70321F4E76FF085007F
:1035BC00B2E76FF00F00AFE70004005821AE01082E
:1035CC00748A0208848302082DE9F047044600EB54
:1035DC00C10600251C4FB44201D1002014E0206824
:1035EC00C30600F01F0911D4656845F02005C0F32F
:1035FC00471AC0F343200A2823D857F82080B8F183
:10360C00000F0DD16FF01200BDE8F087B9F1100F6B
:10361C0004D0B9F1110FEAD16568E8E73025E6E787
:10362C00404624F0E9FC0028ECD04B462A460AF030
:10363C000F01404617F005FC002804F10804CADA13
:10364C00E2E76FF01500DFE7E48C02087FB5074B6B
:10365C00059302230493002304AA4FF482510448D7
:10366C00FEF7B4FA07B05DF804FB00BFAFA8020880
:10367C005C8A02082DE9F84F0B790D464668012B40
:10368C0007692ED0A3F1020EDEF1000848EB0E08FC
:10369C004FEA882895F8059095F806A0B9F1020F25
:1036AC00EC7996BF744A4FF4005E32F819E0BAF127
:1036BC00020F19D0BAF1040F4CD0002B4AD1012CB7
:1036CC0000F0CF80E21E9C46514251411A4619F03F
:1036DC00FD0F3CD0BAF1010F39D9BAF1040F36D035
:1036EC0011E04FF4C068D5E7A3B9012C29F0020210
:1036FC0033D0A4F1030CDCF1000141EB0C0132B32B
:10370C009C464FF08052002C59D0012C2CD0032C0D
:10371C002AD01CE00022012CA4F1030B14BF4FF0A3
:10372C00000C4FF4407CDBF1000141EB0B01A3F1E9
:10373C00030BBBF1010F0AD9002BC8D0BAF1040F4F
:10374C0005D019F0FD0F02D0BAF1010FDBD86FF0E4
:10375C00850084E04FF48052DDE7002AF7D019464B
:10376C004FF4407C4FF080523368444CA34226D037
:10377C00A4F54C44A34222D004F58064A3421ED08D
:10378C0004F58064A3421AD004F58064A34216D0D9
:10379C0004F54444A34212D0A4F51C44A3420ED019
:1037AC0004F58064A3420AD004F51C44A34206D05D
:1037BC0004F58064A34202D0314CA342C7D13468D3
:1037CC00236823F00103236043681C68236803F417
:1037DC00C063984505D0236823F4C06343EA08030B
:1037EC00236043681C68636803F440539E4505D00E
:1037FC00636823F4405343EA0E03636043681C6818
:10380C00236803F01023934204D0236823F0102381
:10381C001343236043681A68936803F44073634549
:10382C0005D0936823F4407343EA0C039360436818
:10383C001B689A68520419D419B19A6842F48042F0
:10384C009A6029683B68994203D017F017FC2B68E3
:10385C003B6032680020136843F001031360BDE83D
:10386C00F88F1A464FF4407C194630E70029E8D10E
:10387C009A6822F48042E3E7549B0208001001404E
:10388C00000C00582DE9F04786B006464468D0F885
:10389C00108000AF9348C8F8040024F0ADFB034639
:1038AC0068B9914A7A6102223A614FF4825107F168
:1038BC0010028E486FF01205FEF788F913E0D8F865
:1038CC000400616883681B689847054680B1884B83
:1038DC007B6102233B61002307F110024FF48251FC
:1038EC008248FEF773F928461837BD46BDE8F087C5
:1038FC0001463A46E06917F0BCFA002801DA0546A1
:10390C00F1E73B682A4619791868FFF75DFE002835
:10391C00F5DB2268136823F001031360D8F8080064
:10392C0024F06AFB034608B9724ABBE7D8E90201E6
:10393C008368DB6803B19847226852E8003F43F084
:10394C000C0342E80039B9F1000FF6D12369022BC0
:10395C0000F09380012B00F09580002B7CD100238C
:10396C00216843EA09030A6822F0805222F4B0521B
:10397C001A430A604B6823F440534B60237B2BB1F2
:10398C0073681A68936843F440739360D8F8001016
:10399C00304617F073FB237D23B12268936843F004
:1039AC0008039360637D23B12268536843F400439A
:1039BC005360A37D23B12268536843F48033536072
:1039CC00E37D23B12268536843F400335360227EB5
:1039DC002368002A78D0484A934258D0A2F54C422A
:1039EC00934254D002F58062934250D002F580622B
:1039FC0093424CD002F58062934248D002F5444287
:103A0C00934244D0A2F51C42934240D002F580620E
:103A1C0093423CD002F51C42934238D002F58062AE
:103A2C00934234D0354A934231D06C4688B03368D7
:103A3C006A463349C2E905134FF400739383314B43
:103A4C0042F8103F00234FF4E25128486FF015055F
:103A5C00FEF7BCF8A54646E7EA4688B06A462A490E
:103A6C00C2E90513032342F8103F4FF4C4514B46EF
:103A7C001E48FEF7ABF8D54671E74FF480534FF470
:103A8C0080696DE74FF480534FF4C06968E7736841
:103A9C001A68936843F4804393602268617E1368CC
:103AAC0023F0787343EA415313602268A17E1368B4
:103ABC0023F4F81343EA01431360E37E23B1226835
:103ACC00936843F4004393602268136843F0010346
:103ADC0013602368DA699102FCD5DA695202FCD5CD
:103AEC0001E700BF84830208DDA802085C8A020893
:103AFC00FCA802081CA9020800100140000C005888
:103B0C0069A902080300000137A902082DE9F04356
:103B1C0087B000AF06694568DFF85881404624F04D
:103B2C006BFA034688B9544A7A6102223A614FF41F
:103B3C00825107F110025148FEF748F86FF0120459
:103B4C0020461C37BD46BDE8F083D8F808904046A7
:103B5C00E968D9F800309847041E0CDA484B7B61B1
:103B6C0002233B61002307F110024FF482514348BA
:103B7C00FEF72CF8E4E7AB68012B0ED9E968D9F80D
:103B8C001830083133B1002240469847041E04DA3D
:103B9C003C4BE4E76FF05704FAE73A4600216868BB
:103BAC0017F067F9041E07DB3B68002219791868C7
:103BBC00FFF70AFD041E10DA6D4688B06A46324BD8
:103BCC00C2E90534032342F8103F00234FF4C251DD
:103BDC002A48FDF7FBFFAD46B2E7B5684FF0010888
:103BEC00D6E9023203EBC2039D4204D330460024D3
:103BFC0017F0BEFAA4E7286824F0FEF90346B0B922
:103C0C002A686C468AB0297910686A46D1614FF4EB
:103C1C0000711E4D11841E49C2E9055042F8101F57
:103C2C004FF411511548FDF7D1FFA54686E72868DA
:103C3C002979EB88DA07D0F810C008FA01FED0F821
:103C4C00089054BF43F4B01383F4D013DCF8004055
:103C5C0023F48012DB074CBF44EA0E0424EA0E0462
:103C6C00CCF80040D9F800309847041EFFF668AF36
:103C7C000835B5E784830208DDA80208548A0208D7
:103C8C00B6A90208D1A90208F3A9020811AA0208D0
:103C9C00040000012DE9F04F93B099468246884606
:103CAC0000AF436804691E687A6012B9B9F1000F5D
:103CBC0037D0B8F804309D0438D44FF0FF324FF0B1
:103CCC00FF3304F1100015F0C3FAC4F80480DFF8D8
:103CDC003CE107F12805DAF810B0DAF804C0BEE8C8
:103CEC000F000FC59EE80F0085E80F00DBF80020E1
:103CFC00B8F804309045DCF80050C3F3451100F0DF
:103D0C00EC80082919D0102917D06FF08509236889
:103D1C009B8813F4005304D1636004F1100015F078
:103D2C0073FA48464C37BD46BDE8F08FA369002BAB
:103D3C00C3D163689845C0D1C9E7180405D5EB68B1
:103D4C0023F4601343F40023EB603148DCF80820C3
:103D5C008368012ADCF80C10DB6837D9083173B999
:103D6C002C4B7B6202233B62002307F120024FF4B1
:103D7C0082512948FDF72AFF6FF00409C7E707F1C4
:103D8C000C0298470028EBDBF9680123D8F80000F7
:103D9C0021FA03F2824222D90133092BF8D16D4664
:103DAC008AB06A461D4BC2E905304B08090AD3613B
:103DBC000523116242F8103F00234FF4215116489D
:103DCC006FF01509FDF702FFAD46A0E70BB9144BD8
:103DDC00C7E707F10C0298470028D5DAF7E72A68FD
:103DEC0007F1480122F0010201EB83032A60AA6863
:103DFC0053F8243C22F0E0421343AB60B8F8043093
:103E0C0099070FD4EB6823F000730EE07C8A02084C
:103E1C008483020835AA0208548A02088DAA020873
:103E2C0061AA0208EB6843F00073EB60B8F8043049
:103E3C0013F0040FEB6814BF43F0807323F080730E
:103E4C00EB602B6823F400632B60EB6823F4C02336
:103E5C00EB60B8F8043013F0100FEB6814BF43F4A8
:103E6C00000323F40003EB60AB6823F48003AB6026
:103E7C00D8F80820B8F80430002A00F00681DA07D8
:103E8C0006D4EB68DB0003D42B6843F480532B601F
:103E9C00EB6823F0105343F08063EB60B8F8043008
:103EAC0013F0010FEB6814BF23F4800343F4800379
:103EBC00EB60B8F80430C3F34513082BAB6823F060
:103ECC001F030CBF43F0070343F00F03AB60AB6859
:103EDC0023F4F073AB60CBF80080B8F804304A469A
:103EEC0079682046C3F34513082B0CBF012302232A
:103EFC0017F0FBF87369DD0700F1D080336843F0ED
:103F0C0001033360012014F021FFDAF81050286807
:103F1C00002840F0C68023689A8812F0010340F014
:103F2C000C8172699007FCD5F268510200F1C680D1
:103F3C002168626C8988C1F34511082940F0CE8054
:103F4C0012B1A16C01B11378DBB286F82030A36CEE
:103F5C00A3B1013BA364002B40F0B980636B083321
:103F6C006363A36B013BA363012304F1480204F1D7
:103F7C00380104F1340017F0A2F860647369DD07AE
:103F8C00FCD522689288C2F34512082AD4E9133171
:103F9C0040F0BE8096F83020D2B20BB101B11A704D
:103FAC00236DA3B1013B2365002B40F01E81E36B15
:103FBC000833E363236C013B2364012304F15002B7
:103FCC0004F1400104F13C0017F079F8E0647369E6
:103FDC0013F4787300F018816D468AB06A469849DC
:103FEC0051619849C2E906134FF400731384964B40
:103FFC0042F8103F00234FF411519448FDF7E6FDB1
:10400C007369AD465A0603D5B36943F04003B361F7
:10401C006FF00409DAF80430DAF810801D68D8F86B
:10402C00003073B19A6862B1998811F4805608D146
:10403C00186914F08BFED8F800003146083017F0E0
:10404C0083F86B69DB0700F1E980EB6813F4800FF0
:10405C006B6940F0E6809E0503D5AB6943F40073B1
:10406C00AB612B68980500F1DF802B6823F001030E
:10407C002B602B68DA07FCD46B69DB0700F1DC8062
:10408C00AB6943F40063AB6141E613F0010FEB68DD
:10409C0023F0105308BF43F00053FEE696F830307F
:1040AC0028E78368002B3FF436AF0121083017F066
:1040BC004BF82B68186914F049FE2CE7326842F46F
:1040CC0000723260326892053FF532AFFAE7636CEA
:1040DC00002B3FF453AF013363644FE712B1A16C73
:1040EC0001B113883384A36C002B3FF447AF013B21
:1040FC00A3643BB9636B08336363A36B013BA3639A
:10410C00022332E7636C002B3FF438AF0233E3E752
:10411C00328E92B20BB101B11A80236D002B3FF499
:10412C0056AF013B2365002B68D1E36B0833E36387
:10413C00236C013B2364022340E7736998074FD536
:10414C00A36C002B4CD0C2F34512636C082A32D1FD
:10415C001B7886F82030A36C93B1013BA36423BB7E
:10416C00636B08336363A36B013BA363012304F10B
:10417C00480204F1380104F1340016F0A0FF606429
:10418C007369D9077FF523AFE36C002B3FF41FAFA6
:10419C00226D002A3FF41BAF22689288C2F34512AD
:1041AC00082A29D196F83020F9E6636C002BE7D069
:1041BC0001336364E4E71B883384A36C002BDFD0EA
:1041CC00013BA3643BB9636B08336363A36B013B93
:1041DC00A3630223CBE7636C002BD1D00233E8E757
:1041EC00336923F002033361CAE7E36C002B3FF41D
:1041FC00EEAE0133E364EAE6328E8DE7E36C002B1E
:10420C003FF4E5AE0233F5E7A36C002B7FF483AEED
:10421C00236D002B7FF47FAE9946FBE695F830308A
:10422C000FE713F0080F13E72B6843F480632B6040
:10423C002B689905FCD418E795F830301CE700BFC3
:10424C00BCAA0208C7AA020804000001548A02088A
:10425C004FF0E02310B59A691969986911F4803F01
:10426C00084B094901D1824206D21A680C682244D3
:10427C001A604FF0E02212691B680A681344181A7E
:10428C0010BD00BF4011002444110024094B102222
:10429C00002083F823204DF2D762074B1A60074B9E
:1042AC0018604FF0E0235A6198611A6942F00702D6
:1042BC001A61704700ED00E0441100244011002405
:1042CC0010B5FFF7C5FF1049104B0868D3E9004241
:1042DC00001942F10002C3E900020D4A00230B60F1
:1042EC004DF2D863D2E90041001BB0FBF3F043431D
:1042FC001B1941F10001C2E9003115F0ADFBBDE81D
:10430C001040FEF7C3B800BF40110024A8060024DB
:10431C00A00600242DE9F041384F00295ED0421C44
:10432C000AD14FF0E022136923F0010313614FF01F
:10433C007F433B60BDE8F0813E68012854DDB0F559
:10434C00987F54DC00F1FF384FF01003EFF3118528
:10435C0083F31288BFF36F8FFFF77AFF4FF0E023E0
:10436C0027499A69D1E9004300194FF0000443F141
:10437C000003C1E90003234B1C60234B1B68C41AC8
:10438C0038D44DF2D86C181A40F66D530CFB084417
:10439C0004F55644D734B4FBFCF40CFB04009842EF
:1043AC0028D91A4B984228BF184638604FF0E023A2
:1043BC0001389C6958610020A2429861A2EB040369
:1043CC00D1E9000238BF9B191B1842F10002C1E968
:1043DC00003285F31188BFF36F8FABE7431C3E6847
:1043EC00ABD14FF49870ADE74FF00008ACE74FF449
:1043FC009878A9E740F66D50D7E700BF4411002428
:10440C00A806002440110024A00600248020FF00F0
:10441C0038B54FF01003EFF3118583F31288BFF317
:10442C006F8F084B1C68084B1B68E41AFFF710FFD2
:10443C0085F31188BFF36F8F4DF2D8632044B0FB26
:10444C00F3F038BDA8060024A006002438B54FF0C0
:10445C001003EFF3118583F31288BFF36F8F054BB5
:10446C001C68FFF7F5FE85F31188BFF36F8F2044AE
:10447C0038BD00BFA8060024024610B578B14F49DC
:10448C008B6913F440433FD14D484E4C1044A0422D
:10449C0007D28B6903F44043B3F5404F51D101204F
:1044AC007CE04948494C1044A04246D94848104445
:1044BC00A04244D947488242886900F4404007D959
:1044CC00B0F5404FEBD08969012001F440414CE03C
:1044DC00B0F5404F45D1404B1344404A93428CBFFA
:1044EC00002301233E490A6822F00F021A430A6096
:1044FC000A6802F00F029A425ED0086800F00F00C2
:10450C00C01A18BF012049E000232C48816901F42E
:10451C004041B1F5404F2BD13249334811448142CF
:10452C0046D92D49A0F574201144A0F51070814294
:10453C0040D92E498A42D5D9B1E70223E5E70123B8
:10454C00E3E78B69002003F44043B3F5004F4FF0D1
:10455C00030319D02649274C1144A14226D92649D8
:10456C0018E08969184601F44041B1F5004FF0E7B5
:10457C00816901F44041B1F5004F10D11F49204829
:10458C001144814214D900201E491D4C1144A142F2
:10459C000CD91D498A4282D80028A3D010BD0C49E1
:1045AC001A481144814203D30020D3E70123F3E7D7
:1045BC00022397E7012395E71846A1E70048025824
:1045CC007FA77BF340D2DF03FFC4A7F77F1D2C042A
:1045DC007FE2D3FB801D2C043FA901FC7F14EF0369
:1045EC0000200052BF9412F8BF56FE03C056FE03C3
:1045FC003FF1E9FDBF0E1602C00E1602FF1E0AFAAD
:10460C007FF0FA027F0F05FD80F0FA02C0E1E400B2
:10461C0070B5044600F0F6F8B8B9636800219868E4
:10462C000E4616F0F1FD0546E5B92146284616F072
:10463C00F8FD024698B163682946986816F0E4FDC7
:10464C00002844D1012A4FD00AE0006883680BB1DE
:10465C00217A9847237E98075FD4D907DDD50022AD
:10466C00104670BD2B683BB96368013698683146BB
:10467C0016F0CAFD0546D7E795F908202B7A002AD3
:10468C00F2DA802B04D023F08003227A9342EBD110
:10469C006B682046E3602B689847237E9A073CD4CE
:1046AC00DB07E1D5DBE790F90820037A002A13DB5E
:1046BC0013B1227A9A420FD14368E3600368204613
:1046CC009847237E9E0728D4D80705D5C7E7012A2B
:1046DC00C6D10368002BE6D101356368294698687A
:1046EC0016F092FD0028F4D160684368ABB1237ECC
:1046FC00590712D4237A233B012B10D94FF4804154
:10470C0017F0B2F948B1237A113BDBB21B2B06D858
:10471C00084A22FA03F3DA0701D50122A0E76368FD
:10472C0020465B686360FFF773FF431E5A425A4191
:10473C0096E700BFFF270F0B10B588B0B8B1002368
:10474C000C4C8DF80C10CDE904329DF81C3023F084
:10475C000703CDE901008DF81C3001A82368206007
:10476C000693FFF755FF069B236008B010BD012090
:10477C00FBE700BF48110024074B1B6803B97047C7
:10478C005A68824202D01A68824203D11A7E42F0E1
:10479C0001021A765B69F1E74811002420210148D7
:1047AC0020F048B9C8130024014B1868704700BFAB
:1047BC004C11002410B50446064A074916F0D9FDE1
:1047CC0063692BB120B920460121BDE81040184780
:1047DC0010BD00BF414B0208354B020810B5044612
:1047EC000649074A16F0C5FD6369014623B118B99D
:1047FC002046BDE81040184710BD00BF3B4B0208D7
:10480C00494B0208014B1868704700BF5411002433
:10481C0038B50D46044600283ED0437943F00203D8
:10482C004371214B1B68834202BF204B00221A604C
:10483C0003681B78013B012B12D821B941638162BB
:10484C000023E3620CE0436B8B4204BF0023436301
:10485C00836A8B4204BF00238362C36A8B42EFD00E
:10486C0038BD437943F00203437103681B78013B65
:10487C00012B11D81DB945638562C4620CE0436BF2
:10488C00AB4204BF00234363836AAB4204BF0023E3
:10489C008362C36AAB42F0D00DF064FC0028E0D117
:1048AC00024B1860DCE700BF5411002450110024A7
:1048BC00014B1868704700BF501100242DE9F047D8
:1048CC000546A4B016F0C7FC0646284616F0BFFCF9
:1048DC00122E04464BD1284616F0C1FC037805462F
:1048EC00022B08D017220021204619F0F7F80646B3
:1048FC0020B102232B7024B0BDE8F08701460B22B7
:10490C00204619F0EBF868220FFA80F83146204661
:10491C0019F0E4F8074669223146204619F0DEF812
:10492C00B4F91620B4F918E0BBB2B4F91AC080B2CD
:10493C00A18A121A6044C91A7344ADF84A2042463F
:10494C00ADF8481012A9ADF84C30ADF84E006868BF
:10495C001FF0BCFD08B90123CCE7212231462046CB
:10496C0019F0BCF8C0B2FC28F5D92E70C3E7152E8F
:10497C0040F0868004AF284616F0C2FC0646384646
:10498C0004F00AF834220021204619F0A7F828B1C7
:10499C009DF8333043F001038DF833303A46002153
:1049AC0020460DF1080817F0A1FA682200212046D4
:1049BC0019F094F8054669220021204619F08EF86A
:1049CC00B4F91AC0B4F91620ABB2A18A80B2B4F90A
:1049DC0018E00025121AC91A60447344ADF8081087
:1049EC003146ADF80E0012A8ADF80C30ADF80A2027
:1049FC0017F072FDC14B12AA1A212046139314957D
:104A0C001697CDF854801F95FFF796FE172229466E
:104A1C00204619F063F868B3BDF9103053B3424621
:104A2C0039463046DDF820A008951AF0EAFC18202B
:104A3C000DF0BCFE814604F114012B46BDF910208B
:104A4C0003F0A4FD04F59071484603F027FCBAF17D
:104A5C00000F05D112AA1B212046FFF76DFE4AE775
:104A6C008DF813508DF832508DF83A508DF8465021
:104A7C00CDF820A04246394630461AF0C2FCE9E790
:104A8C00182E7FF438AF284616F03AFC02AA0646D8
:104A9C006946204618F065FB68461FF0EAFB0028C3
:104AAC0000F0BC8004AD284603F076FF21224FF4C1
:104ABC008031204619F012F8C0B202288DF813008C
:104ACC0007D920224FF48031204619F007F8ADF8B1
:104ADC00140031224FF48031204618F0FFFFC0B291
:104AEC0002288DF8320013D932224FF4803120463F
:104AFC0018F0F4FF00B20028ADF8300040F3F58058
:104B0C0030224FF48031204618F0E8FFADF82E002B
:104B1C0045224FF48031204618F0E0FFC0B2022845
:104B2C008DF846001BD940224FF48031204618F0F6
:104B3C00D5FF00B20028ADF83E0040F3DA804322E6
:104B4C004FF48031204618F0C9FF4422ADF84400E0
:104B5C004FF48031204618F0C1FFADF83C006022C4
:104B6C004FF48031204618F0B9FFC0B2FC280BD8A6
:104B7C009DF8133043431B128DF8133043431B0A2B
:104B8C008DF832308DF846309DF832209DF8133078
:104B9C0013439DF84620134346D00B224FF480312B
:104BAC00204618F09BFF3146ADF8100012A817F004
:104BBC0093FC524B684616951393022314934FF4AF
:104BCC0080331F931FF055FB80B112AA1A21204687
:104BDC00CDF854D0FFF7B0FD6A46294630461AF09E
:104BEC0010FC12AA1B212046FFF7A6FD02A81FF0FD
:104BFC0040FBC8B102AB12AA1A2120461593FFF74D
:104C0C009BFD02AB294630461A4615931AF0F9FB68
:104C1C0012AA1B212046FFF78FFD05E002A81FF00A
:104C2C0028FB00287FF43EAF17220021204618F005
:104C3C0055FF50B104F5907003F078FB054620B198
:104C4C001AF09EFB28460DF0FBFD34220021204675
:104C5C0018F044FF00283FF44EAE0DF1100800256B
:104C6C00404603F099FE4246294620468DF81350E3
:104C7C008DF82A508DF83A508DF8465017F036F9C9
:104C8C0068222946204618F029FF07466922294642
:104C9C00204618F023FFB4F91AC0B4F91620BBB2A1
:104CAC00A18A80B2B4F918E0121AC91A604473448C
:104CBC00ADF808103146ADF80E0012A8ADF80C3066
:104CCC00ADF80A2017F008FC0C4B12AA1A2120464A
:104CDC0013930123CDF85880149302AB1F951593B1
:104CEC00FFF72AFD02AA4146C6E600238DF83230B2
:104CFC000EE700238DF8463031E700BF208E020806
:104D0C0010B5114C2378F3B90DF0F2FC0DF088FEC0
:104D1C000DF090FC0DF008FBFFF740FD19F052FD73
:104D2C0001F004FB4FF4AE7108481FF083FE5C21C8
:104D3C0007481FF07FFE19F03EFC04F0D1F91EF07D
:104D4C0009F90123237010BD2C0D0124F813002444
:104D5C00EC1300240146044810B500F05BF804463F
:104D6C0017F066F8204610BD208E020810B50846D4
:104D7C000C46FFF701FD002001F0DEFA144A002179
:104D8C00204618F0E4FF012001F0D6FA002120465D
:104D9C000DF000FB204616F075FE10B1204616F003
:104DAC006EFBA3689BB1186820B10DF0CDFCA36815
:104DBC0000221A60A368D86820B10DF0C5FCA36866
:104DCC000022DA60A0680DF0BFFC0023A36010BDC8
:104DDC00FFFF0F0038B585680446BDB90C4A1C208E
:104DEC001368013313600DF091FCA06000B9FEE76D
:104DFC001C22294615F0C2FCA268537E43F00F0317
:104E0C005376A268137E43F00303137638BD00BFBC
:104E1C0058110024F8B502460D46074635493AB1FB
:104E2C009669314202D0C6F30F1602E01268F6E71B
:104E3C00164630460DF06AFC044668B13246002135
:104E4C0015F09CFCC4E900756DBB0DF04DF90546E1
:104E5C0028B920460DF078FC00242046F8BDC06827
:104E6C0098B904200DF052FC0123E86004606B62D9
:104E7C000025284665610DF03DF901382083284650
:104E8C000DF048F901386083E7E7696A013169621E
:104E9C0089000DF071FC6B6AE86003F18043013B03
:104EAC0040F82340E4E7AB6813B92846FFF792FFBC
:104EBC00AE68336853B904200DF028FC3060AB6841
:104ECC0001221B681C60AB685A60C6E7736801332B
:104EDC007360AE687168306889000DF04DFC30600D
:104EEC00AA685368126803F18043013B42F82340DF
:104EFC00B3E700BFF0FF0F0038B50B49054616F0BD
:104F0C00B9FD044608B1002038BD284619F06AF9ED
:104F1C000028F8D00A22214618F0E0FD80B20038B3
:104F2C0018BF0120F0E700BF01000600F8B50D4FD7
:104F3C0006460D4D0C463B6828680133D9003B6092
:104F4C000DF01AFC0346286000B9FEE7386800F142
:104F5C000052013A43F832602B6803EBC2035C60E9
:104F6C00F8BD00BF5C110024AC130024054B07B541
:104F7C002C2101AA0193FFF7DFFBBDF9040003B05C
:104F8C005DF804FB000001E02DE9F04F87B080468E
:104F9C00FFF7B2FF0546002840F02381404619F088
:104FAC0021F9294607220090404618F097FD294622
:104FBC0004B20822404618F091FD009B05B23BB9A3
:104FCC002A462146404607B0BDE8F04F17F07EBE9A
:104FDC00009817F069FC0746009817F07BFC04F466
:104FEC00C0430646B3F5005F0FD124F4C043B3F5BC
:104FFC00FA6F0ADCB3F57A7F4FF06402C8BFC3F5D1
:10500C007A737B4393FBF2F31CB205F4C043B3F504
:10501C00005F0FD125F4C043B3F5FA6F0ADCB3F58A
:10502C007A7F4FF06402C8BFC3F57A73734393FB66
:10503C00F2F31DB26A220021404618F04FFD6B229C
:10504C000FFA80FB0021404618F048FDB8F81430E8
:10505C0000B20193B8F81830019A01339BB2A3EB5C
:10506C00020A0493B8F816300FFA8AFA0293B8F8C9
:10507C001A30029A01339BB2A3EB020903930BF48F
:10508C00C0430FFA89F9B3F5005F11D12BF4C0437B
:10509C00B3F5FA6F0CDCB3F57A7F4FF06402C8BF3E
:1050AC00C3F57A7303FB0AF393FBF2F30FFA83FB5A
:1050BC0000F4C043B3F5005F10D120F4C043B3F546
:1050CC00FA6F0BDCB3F57A7F4FF06402C8BFC3F5FF
:1050DC007A7303FB09F393FBF2F318B25C440544B7
:1050EC0009220021A3B240461FFA85FB059318F054
:1050FC00F5FC10F0FF0024B22DB2059B0CD10098EA
:10510C00029317F029FA0128029B7FF459AF019AF8
:10511C000499541A3C4420E001283FF451AF023862
:10512C0007283FF64DAF01A252F820F05951000864
:10513C001B5100087F5100086D5100088D5100086B
:10514C00B3510008A7510008C35100080AEBDA74E8
:10515C0007EBD7776410C4EB67041C4424B22FE729
:10516C000AEBDA7407EBD7776410C4EB67041C44C2
:10517C0024B2DDE902329D1A35445D442DB21FE79D
:10518C00019A0499541A3C441C44DDE9023224B2BD
:10519C009B1A33445B441DB212E7019A0499521ACC
:1051AC003A4413441CB209EBD97506EBD6766D1054
:1051BC00C5EB6605E1E70AEBDA7A09EBD97907EB7F
:1051CC00D7774FEA6A0A06EBD6764FEA6909CAEB3B
:1051DC00670AC9EB66095344CB441CB20FFA8BF532
:1051EC00EEE607B0BDE8F08F2DE9F04F90F82330D4
:1051FC008FB0044603F00603062B03D100200FB03A
:10520C00BDE8F08F18F0EEFF07460028F6D02046D8
:10521C0000F022FD94F82310059011F0040120D029
:10522C00268BA38A0136F61A002336B20193204648
:10523C0017F0CDFE94F82310069011F0020100F047
:10524C003B81658BE38A0135ED1A019B2DB2002B56
:10525C0000F0698100232046DDE9051217F058FFA4
:10526C0061E10122204618F039FC42F2D17805B2F6
:10527C003846A5EB08014B424B41019305F4C04362
:10528C00B3F5005F41D125F4C046B6F5FA6F3CDCAE
:10529C0017F00AFB4545029040F0E18000222046C1
:1052AC00114600F04DFE204617F05DF906462046EB
:1052BC001FFA86FA17F05EF910FA86F6204617F0F8
:1052CC0060F98244B6B220461FFA8AFAFFF74EFE06
:1052DC0006EB0A050544204618F096FF039020467D
:1052EC002DB217F039F9012829D00FFA8AF34FF0B3
:1052FC000008DFF8BC910493039B434572D16C4BBF
:10530C00994509D04E4436B228E017F0CDFA42F256
:10531C00D17302909D42C1D002220021204618F088
:10532C00DDFB032206B20021204618F0D7FB3146E4
:10533C0002B2029B284617F0AAFD064677E733B265
:10534C004FF00009DFF868810493039B4B450CD1A7
:10535C00574B9845E0D0D0440FFA88F6544B9E42F8
:10536C00DAD0B542B8BF3546D6E7A36851491B68B9
:10537C0053F829B0584616F07DFB80BB5846FFF712
:10538C00BBFD014658B90922584618F0A7FBC0B21C
:10539C0008280ED840F24912C240D20709D5B4F9F8
:1053AC001820BBF91430D31A01334345B8BF434618
:1053BC0013E007220021584618F090FB00B270B998
:1053CC00BBF81820BBF8143001320499D31A9AB2E6
:1053DC0001FA83F3984502DCB3180FFA83F809F14C
:1053EC000109B2E7A36833491B6853F828B0584643
:1053FC0016F040FB80BB5846FFF77EFD014650B9C6
:10540C000922584618F06AFBC0B207280DD893221F
:10541C00C240D30709D5BBF91830B4F914209B1A34
:10542C0001334B45B8BF4B4614E0082200215846C7
:10543C0018F054FB00B278B9BBF81820BBF8143044
:10544C0001320499D31A9AB201FA83F3994503DC19
:10545C000AEB02030FFA83F908F101084CE797F8FD
:10546C00231011F0040116D10122384618F036FB36
:10547C0000B240450FD1204617F075F8064620467D
:10548C0017F07FF885192046ADB217F073F8304449
:10549C0005442DB240E7B6F57A7F3346029AC8BF71
:1054AC00C6F57A735343642293FBF2F31DB233E7D0
:1054BC0001E0FFFF010004000422204618F00EFB5F
:1054CC000FFA80FA00F4C040B0F5005F384605D101
:1054DC002AF4C045B5F5FA6F40F38B8017F0FAF952
:1054EC0042F2D17302909A4500F08A80554605220B
:1054FC000021204618F0F2FA06220FFA80F800215B
:10550C00204618F0EBFA029B02B24146284617F0EF
:10551C00BEFC019B0546002B7FF49CAE42F2D1737E
:10552C009A453FF497AE238BA28A01339B1A1BB288
:10553C009E4207D1638BE28A01339B1A1BB29D42B8
:10554C003FF45CAE204604F1140917F0A1FBA38ACA
:10555C000CA93846ADF82830E38AADF82A30238BF5
:10556C00ADF82C30638BADF82E3017F0C9F9002252
:10557C000CA90AA81EF0AAFF804610B9384618F0EC
:10558C007FF9E38A2046B6B2013B2B44638316F0C5
:10559C00E3FF01280AAA4FF0290108BF238B2046FC
:1055AC0015BFA38A013303F1FF339B1B16BFF618FB
:1055BC00A3822683FFF7C0F8224622213846FFF744
:1055CC00BBF8204617F064FB0021204618F078F950
:1055DC0000220CA948461EF079FFB8F1000F00D14B
:1055EC0010B1384618F04CF9204616F083FF012014
:1055FC0005E642F2D17817F06DF90290C24572D1EE
:10560C00002220464FF0000B114600F0AFFC204664
:10561C0016F0A9FF0546204616F0C1FF1FFA85F8C3
:10562C0010FA85F52046ABB203932BB2079316F014
:10563C00AFFF804420461FFA88F3DFF8FC80049308
:10564C0017F08EF9DDE903329D180544204618F059
:10565C00DBFD08902DB2089B5B450AD1364B984573
:10566C003FF445AF049B43441BB29D42B8BF1D465B
:10567C003DE7A36831491B6853F82B90484616F058
:10568C00F9F968BB4846FFF737FC014640B9099069
:10569C000922484618F022FA0999C0B2032809D801
:1056AC00B9F91A30B4F916209B1A01334345B8BF27
:1056BC00434613E00822484618F010FA00B278B9B5
:1056CC00B9F81A20B9F8163001320799D31A9AB2E0
:1056DC0001FA83F3984503DC039B13440FFA83F818
:1056EC000BF1010BB7E797F8231011F0020117D15A
:1056FC000422384618F0F2F900B2404510D1204689
:10570C0016F031FF8046204616F049FF00EB0805E5
:10571C002046ADB216F03CFF404405442DB2E6E6FF
:10572C00B5F57A7F029BC8BFC5F57A755D436423D6
:10573C0095FBF3F5F2E700BF01E0FFFF0100040069
:10574C0070B50446002518F05FFD0646B54227D11A
:10575C0094F82230DA072BD56FF30003204684F837
:10576C002230FFF741FD2046FFF70EFC05B30A225D
:10577C000021204618F0B2F983B2CBB10D4A126861
:10578C009A4215D303F100530B4A2046013B126891
:10579C0002EBC30152F833304968BDE8704018473A
:1057AC00A3681B6853F825000135FFF7C9FFCDE747
:1057BC0070BD00BF5C110024AC13002438B50B4D38
:1057CC002B7853B901232B7018F004FD044694F880
:1057DC00223013F0020201D12A7038BD6FF341035D
:1057EC00204684F82230FFF7ABFFF0E72D0D0124A3
:1057FC002DE9F04F85B08A46044691460193BDF9D8
:10580C0038300393FFF7DAFFBAF1000F03D12046CB
:10581C0018F0E8FC8246204618F0E4FC054616F029
:10582C00A2FE8046284616F0ACFE1FFA88F610FA47
:10583C0088F828460FFA88F3009316F0B0FE064459
:10584C00504633B2029316F08EFE0746504616F0C1
:10585C0098FEBEB210FA87F350469FB20FFA83F847
:10586C0016F09DFE321896B20FFA82FBB9F1000FBA
:10587C000ED1504616F070FE012878D1504617F024
:10588C0013F8A38A268B013B9B1B3B4403446CE01F
:10589C0009F1FF39B9F1140F2CD801A050F829F0F7
:1058AC007B5900085559000889580008095A000806
:1058BC00E3590008215A000831590008355A0008EC
:1058CC000B590008735A0008815A0008B95A00088D
:1058DC00CD5A0008D95A0008135B0008275B000852
:1058EC00395B0008715B00088B5B0008975B000854
:1058FC00A35B00084FF0000B4FF0000837E0504658
:10590C0016F0D2FF238BA28A00EBD07001339B1AC6
:10591C00C3F3C03202FA83F3A7EB630303EB600318
:10592C000FFA83F8504616F0D5FF628BE78A00EB2E
:10593C00D0700132D21BC2F3C03707FA82F2A6EB49
:10594C00620202EB600262E0504616F0ADFF238B60
:10595C00A68A00EBD07001339B1BC3F3C03606FA4A
:10596C0083F3A7EB630303EB60030FFA83F828467A
:10597C001FFA88F616F0F0FDBAF91430019A0128D6
:10598C00B5F914001344A3EB0007284640F0098135
:10599C0000F0CAF9009B3844C01A304406B2039B8D
:1059AC002846BAF916701F44B5F91630FF1A17F0CD
:1059BC000EFB029B0022C51901212046ED1A18F09E
:1059CC00F0FB314620465D44ADB22AB205B0BDE8CD
:1059DC00F04F16F098BE504616F066FF238BA28A45
:1059EC0000EBD07001339B1AC3F3C03202FA83F37D
:1059FC00A7EB630303EB60030FFA83F8504616F032
:105A0C0069FFE28A678B013AD21B324402440FFAD7
:105A1C0082FBACE7504616F047FFA38A228B013B72
:105A2C009B1A3B440344E7E7504616F03DFFA38A1C
:105A3C00228B013B9B1A1F440744504616F04AFF29
:105A4C00628B0FFA87F8E78A013200EBD070D21B19
:105A5C00C2F3C03707FA82F2A6EB620606EB6006C9
:105A6C000FFA86FB83E7E28A638B013AD21A0FFAAC
:105A7C0082FB41E7BAF81830BAF814200133A08A37
:105A8C009B1AC3F3C03202FA83F2238B01331B1A25
:105A9C00C3F3C03000FA83F35B10C3EB6203E28AFA
:105AAC000FFA83F8608B013A121AB0E7228BA38AA3
:105ABC009B1ABAF818201344BAF814209B1AEEE774
:105ACC00BAF81A20BAF816300132CFE7BAF8183003
:105ADC00BAF814200133A08A9B1AC3F3C03202FA1D
:105AEC0083F2238B01331B1AC3F3C03000FA83F308
:105AFC005B10C3EB6203BAF81A200FFA83F8013279
:105B0C00BAF81600D0E7228BA38A9B1ABAF8182091
:105B1C001344BAF814209B1AEDE7A38A228B013B9D
:105B2C009B1A4FF0000B0FFA83F820E7A38A228B05
:105B3C00013B9B1ABAF81A20BAF816000132E68A11
:105B4C000FFA83F8121AC2F3C03000FA82F0628B9B
:105B5C000132921BC2F3C03606FA82F25210C2EB2B
:105B6C00600254E7A38A228B013B9B1A608BE28A6A
:105B7C000FFA83F8121ABAF81A000244C0E7BAF8FE
:105B8C001830BAF814200133CAE7BAF81830BAF84A
:105B9C0014200133CDE7BAF81830BAF814200133C9
:105BAC00E3E700F059F8009B3844C01A064436B2BB
:105BBC00F5E600BF2DE9F8430646002418F024FB57
:105BCC00234D0746DFF88C90BC4230D110220021C7
:105BDC00304617F083FF112200210446304617F09F
:105BEC007DFF322207460021304617F077FF184B15
:105BFC0080469D4204D03B18728B9B1A2B441DB2DD
:105C0C00304616F0ADFE8146304616F047FEE319DD
:105C1C0003EB48034B441B1A304617F0D2F99BB2E6
:105C2C00181A00B2A842B8BF2846BDE8F883B3687A
:105C3C0049461B6853F82480404615F01BFF20B9D9
:105C4C00B8F91A309D42B8BF1D460134BCE700BFFD
:105C5C0001E0FFFF010004002DE9F84F002105468B
:105C6C0017F049F9012806D0A86810B1008A404203
:105C7C0000B2BDE8F88F13220021284641F6FF79C7
:105C8C0017F02CFF1222002107462846002617F099
:105C9C0025FF002132220446284617F01FFF8046BC
:105CAC00284618F0B1FA1E498246B24527D141F672
:105CBC00FF73A4B21FFA88F8284699451CBF04EB61
:105CCC000806AB8A3C440CBF164EF61804EB48048D
:105CDC001CBFA6EB090636B2FFF748F981462846E9
:105CEC004C4416F0D5FD03462846A4B217F063F9D0
:105CFC000444E01A00B2B042B8BF3046B9E7AB6812
:105D0C001B6853F826B0584615F0B4FE044920B968
:105D1C00BBF914309945A8BF99460136C5E700BFB9
