:020000040800F2
:10000000C0430124A1480008D7120208754800081F
:100010007548000875480008754800080000000091
:100020000000000000000000000000008541000802
:10003000754800080000000031410008ED6000082C
:1000400029420008294200082942000829420008E4
:1000500029420008294200082942000829420008D4
:1000600029420008294200082942000829420008C4
:1000700029420008294200082942000829420008B4
:0402FC00FFFFFFFF02
:1003000090F800F06DE9024520F007016FF0000C55
:1003100010F0070491F820F040F049804FF00004FD
:100320006FF00700D1E9002391F840F000F10800D8
:1003300082FA4CF2A4FA8CF283FA4CF3A2FA8CF310
:100340004BBBD1E9022382FA4CF200F10800A4FA77
:100350008CF283FA4CF3A2FA8CF3E3B9D1E90423CB
:1003600082FA4CF200F10800A4FA8CF283FA4CF302
:10037000A2FA8CF37BB9D1E9062301F1200182FABC
:100380004CF200F10800A4FA8CF283FA4CF3A2FAC2
:100390008CF3002BC6D0002A04BF04301A4612BAD0
:1003A000B2FA82F2FDE8024500EBD2007047D1E9D3
:1003B000002304F00305C4F100004FEAC50514F062
:1003C000040F91F840F00CFA05F562EA05021CBF33
:1003D00063EA050362464FF00004A9E7000000004D
:1003E000A2EB0300704700BF02780B78012A28BFF8
:1003F0009A42F5D16DE9044540EA0104CDE902676E
:100400006FF0000C4FEA447212B380EA010414F05A
:10041000070F6AD100F0070420F0070004F003057D
:1004200021F007014FEAC505F0E8042314F0040F9A
:10043000F1E804670CFA05F462EA040266EA0406CD
:100440000AD063EA0403624667EA0407664603E0EB
:10045000F0E80423F1E8046782FA4CF582EA060426
:10046000A4FA8CF46CBB83FA4CF583EA0705A5FA71
:100470008CF595B950E9022351E9026782FA4CF5EF
:1004800082EA0604A4FA8CF483FA4CF583EA0705A1
:10049000A5FA8CF52543DBD09CB92DBAB5FA85F4C5
:1004A00024F0070427FA04F1DDE9026723FA04F3D4
:1004B00003F0FF0001F0FF01FDE80445A0EB01009F
:1004C000704724BAB4FA84F424F0070426FA04F13D
:1004D000DDE9026722FA04F202F0FF0001F0FF01F9
:1004E000FDE80445A0EB0100704714F0030F3CD178
:1004F00010F0030428D150F8082B51F8083B82FA79
:100500004CF582EA0305A5FA8CF55DB950F8042C88
:1005100051F8043C82FA4CF582EA0305A5FA8CF501
:10052000002DE8D02DBAB5FA85F424F0070423FA9B
:1005300004F122FA04F202F0FF0001F0FF01FDE8ED
:100540000445A0EB010070474FEAC40420F003000B
:1005500050F8082B21F0030151F8083B0CFA04F481
:1005600062EA040263EA0403C9E710F003041AD044
:10057000A1EB040120F00300E40750F8042B06D09F
:100580000FD28B785FFAA2F4E41A06D12BB1CB78A4
:100590005FFAB2F4E41A00D11BB920465DF8104BA3
:1005A000704701F1040150F8042BCC0721F003013E
:1005B00051F8043B48D824D222F07F4482FA4CF50B
:1005C00094EA1325A5FA8CF50AD165B951F8043BD4
:1005D00084EA0204B4EB036F0ED150F8042BEBE76E
:1005E0004FEA132355E035F07F454DD10878FDE8FB
:1005F0000445C0F1000070474FEA126203F0FF03A8
:1006000047E002EA1C4482FA4CF594EA1345A5FA45
:100610008CF50AD165B951F8043B84EA0204B4EBC5
:10062000034F0CD150F8042BEBE74FEA134330E0B3
:1006300015EA1C4528D10B884FEA124229E04FEAFF
:10064000124203EA1C4324E002F0FF0482FA4CF554
:1006500094EA1365A5FA8CF50AD165B951F8043B03
:1006600084EA0204B4EB032F09D150F8042BEBE722
:100670004FEA13630DE015F0FF0F05D10B684FEA49
:10068000122223F07F4304E04FF00000FDE8044510
:10069000704712BA1BBA82FA4CF482EA0304A4FA35
:1006A0008CF5B5FA85F402FA04F203FA04F34FEA82
:1006B0001260FDE80445A0EB1360704700000000E5
:1006C00001F0FF01102A2BDB10F0070F08D010F803
:1006D000013B013A8B422DD010F0070F42B3F6D107
:1006E000F0B441EA012141EA014122F007047FF020
:1006F00000070023F0E80256083C85EA010586EA77
:10070000010685FA47F5A3FA87F586FA47F6A5FAB2
:1007100087F68EB9EED1F0BC01F0FF0102F00702BE
:1007200032B110F8013B013A83EA010313B1F8D169
:100730000020704701387047002D06BF354603384A
:10074000073815F0010F07D1013015F4807F02BF83
:10075000013015F4C03F0130F0BC0138704700BFD4
:1007600081F0004102E000BF83F0004330B54FEA62
:1007700041044FEA430594EA050F08BF90EA020FCF
:100780001FBF54EA000C55EA020C7FEA645C7FEA62
:10079000655C00F0E2804FEA5454D4EB5555B8BF85
:1007A0006D420CDD2C4480EA020281EA030382EAF6
:1007B000000083EA010180EA020281EA0303362D88
:1007C00088BF30BD11F0004F4FEA01314FF4801C5B
:1007D0004CEA113102D0404261EB410113F0004F6D
:1007E0004FEA03334CEA133302D0524263EB430324
:1007F00094EA050F00F0A780A4F10104D5F1200EC2
:100800000DDB02FA0EFC22FA05F2801841F100011C
:1008100003FA0EF2801843FA05F359410EE0A5F1F0
:1008200020050EF1200E012A03FA0EFC28BF4CF021
:10083000020C43FA05F3C01851EBE37101F00045D7
:1008400007D54FF0000EDCF1000C7EEB00006EEBE4
:100850000101B1F5801F1BD3B1F5001F0CD349086E
:100860005FEA30004FEA3C0C04F101044FEA4452C5
:1008700012F5800F80F09A80BCF1004F08BF5FEA4C
:10088000500C50F1000041EB045141EA050130BD2C
:100890005FEA4C0C404141EB0101013C28BFB1F53E
:1008A000801FE9D291F0000F04BF01460020B1FA89
:1008B00081F308BF2033A3F10B03B3F120020CDA5C
:1008C0000C3208DD02F1140CC2F10C0201FA0CF03A
:1008D00021FA02F10CE002F11402D8BFC2F1200C9F
:1008E00001FA02F120FA0CFCDCBF41EA0C01904055
:1008F000E41AA2BF01EB0451294330BD6FEA04049E
:100900001F3C1CDA0C340EDC04F11404C4F1200288
:1009100020FA04F001FA02F340EA030021FA04F39A
:1009200045EA030130BDC4F10C04C4F1200220FAF1
:1009300002F001FA04F340EA0300294630BD21FA2F
:1009400004F0294630BD94F0000F83F4801306BFF5
:1009500081F480110134013D4EE77FEA645C18BFE9
:100960007FEA655C29D094EA050F08BF90EA020F80
:1009700005D054EA000C04BF1946104630BD91EA78
:10098000030F1EBF0021002030BD5FEA545C05D17B
:100990004000494128BF41F0004130BD14F58004BA
:1009A0003CBF01F5801130BD01F0004545F0FE412E
:1009B00041F470014FF0000030BD7FEA645C1ABF63
:1009C000194610467FEA655C1CBF0B46024650EA9A
:1009D000013406BF52EA033591EA030F41F40021C6
:1009E00030BD00BF90F0000F04BF0021704730B54C
:1009F0004FF4806404F132044FF000054FF0000121
:100A000050E700BF90F0000F04BF0021704730B5E1
:100A10004FF4806404F1320410F0004548BF4042B6
:100A20004FF000013EE700BF42004FEAE2014FEA0B
:100A300031014FEA02701FBF12F07F4393F07F4FE6
:100A400081F06051704732F07F4208BF704793F0E9
:100A50007F4F04BF41F40021704730B54FF46074FC
:100A600001F0004521F000411CE700BF50EA0102FF
:100A700008BF704730B54FF000050AE050EA0102A8
:100A800008BF704730B511F0004502D5404261EB18
:100A900041014FF4806404F132045FEA915C3FF459
:100AA000D8AE4FF003025FEADC0C18BF03325FEAF6
:100AB000DC0C18BF033202EBDC02C2F1200300FAA7
:100AC00003FC20FA02F001FA03FE40EA0E0021FACC
:100AD00002F11444BDE600BF70B54FF0FF0C4CF4BA
:100AE000E06C1CEA11541DBF1CEA135594EA0C0F6C
:100AF00095EA0C0F00F0DEF82C4481EA030621EAA7
:100B00004C5123EA4C5350EA013518BF52EA0335E1
:100B100041F4801143F4801338D0A0FB02CE4FF093
:100B20000005E1FB02E506F00042E0FB03E54FF0C3
:100B30000006E1FB03569CF0000F18BF4EF0010EBB
:100B4000A4F1FF04B6F5007F64F5407404D25FEAB7
:100B50004E0E6D4146EB060642EAC62141EA55516A
:100B60004FEAC52040EA5E504FEACE2EB4F1FD0CAC
:100B700088BFBCF5E06F1ED8BEF1004F08BF5FEA2A
:100B8000500E50F1000041EB045170BD06F00046DC
:100B900046EA010140EA020081EA0301B4EB5C0489
:100BA000C2BFD4EB0C0541EA045170BD41F4801181
:100BB0004FF0000E013C00F3AB8014F1360FDEBFA6
:100BC000002001F0004170BDC4F10004203C35DA82
:100BD0000C341BDC04F11404C4F1200500FA05F305
:100BE00020FA04F001FA05F240EA020001F00042A6
:100BF00021F0004110EBD37021FA04F642EB06011C
:100C00005EEA430E08BF20EAD37070BDC4F10C0445
:100C1000C4F1200500FA04F320FA05F001FA04F209
:100C200040EA020001F0004110EBD37041F10001F5
:100C30005EEA430E08BF20EAD37070BDC4F1200500
:100C400000FA05F24EEA020E20FA04F301FA05F268
:100C500043EA020321FA04F001F0004121FA04F210
:100C600020EA020000EBD3705EEA430E08BF20EAE0
:100C7000D37070BD94F0000F0FD101F0004640001A
:100C800041EB010111F4801F08BF013CF7D041EA9C
:100C9000060195F0000F18BF704703F000465200A0
:100CA00043EB030313F4801F08BF013DF7D043EA71
:100CB0000603704794EA0C0F0CEA135518BF95EA27
:100CC0000C0F0CD050EA410618BF52EA4306D1D1AE
:100CD00081EA030101F000414FF0000070BD50EACD
:100CE000410606BF1046194652EA430619D094EA57
:100CF0000C0F02D150EA013613D195EA0C0F05D141
:100D000052EA03361CBF104619460AD181EA030194
:100D100001F0004141F0FE4141F470014FF000004C
:100D200070BD41F0FE4141F4780170BD70B54FF0E7
:100D3000FF0C4CF4E06C1CEA11541DBF1CEA135567
:100D400094EA0C0F95EA0C0F00F0A7F8A4EB050449
:100D500081EA030E52EA03354FEA013100F0888040
:100D60004FEA03334FF0805545EA131343EA126309
:100D70004FEA022245EA111545EA10654FEA0026BE
:100D80000EF000419D4208BF964244F1FD0404F577
:100D9000407402D25B084FEA3202B61A65EB0305D3
:100DA0005B084FEA32024FF480104FF4002CB6EB90
:100DB000020E75EB030E22BFB61A754640EA0C0010
:100DC0005B084FEA3202B6EB020E75EB030E22BF50
:100DD000B61A754640EA5C005B084FEA3202B6EB91
:100DE000020E75EB030E22BFB61A754640EA9C0050
:100DF0005B084FEA3202B6EB020E75EB030E22BF20
:100E0000B61A754640EADC0055EA060E18D04FEADD
:100E1000051545EA16754FEA06164FEAC30343EA7D
:100E200052734FEAC2025FEA1C1CC0D111F4801F4A
:100E30000BD141EA00014FF000004FF0004CB6E743
:100E400011F4801F04BF01430020B4F1FD0C88BFE2
:100E5000BCF5E06F3FF6AFAEB5EB030C04BFB6EBED
:100E6000020C5FEA500C50F1000041EB045170BDE0
:100E70000EF0004E4EEA113114EB5C04C2BFD4EB0D
:100E80000C0541EA045170BD41F480114FF0000E91
:100E9000013C90E645EA060E8DE60CEA135594EA0D
:100EA0000C0F08BF95EA0C0F3FF43BAF94EA0C0F10
:100EB0000AD150EA01347FF434AF95EA0C0F7FF485
:100EC00025AF104619462CE795EA0C0F06D152EAD9
:100ED00003353FF4FDAE1046194622E750EA4106BD
:100EE00018BF52EA43067FF4C5AE50EA41047FF4CE
:100EF0000DAF52EA43057FF4EBAE12E74FF0FF3C33
:100F000006E000BF4FF0010C02E000BF4FF0010C03
:100F10004DF804CD4FEA410C7FEA6C5C4FEA430C7C
:100F200018BF7FEA6C5C1BD001B050EA410C0CBFCB
:100F300052EA430C91EA030F02BF90EA020F00202D
:100F4000704710F1000F91EA030F58BF994208BF94
:100F500090422CBFD8176FEAE37040F00100704751
:100F60004FEA410C7FEA6C5C02D150EA013C07D1A8
:100F70004FEA430C7FEA6C5CD6D152EA033CD3D0F3
:100F80005DF8040B704700BF8446104662468C46ED
:100F90001946634600E000BF01B5FFF7B7FF002820
:100FA00048BF10F1000F01BD4DF808EDFFF7F4FF49
:100FB0000CBF012000205DF808FB00BF4DF808EDD4
:100FC000FFF7EAFF34BF012000205DF808FB00BFF7
:100FD0004DF808EDFFF7E0FF94BF012000205DF819
:100FE00008FB00BF4DF808EDFFF7CEFF94BF0120CE
:100FF00000205DF808FB00BF4DF808EDFFF7C4FFC7
:1010000034BF012000205DF808FB00BF53B94AB986
:10101000002908BF00281CBF4FF0FF314FF0FF3000
:1010200000F00CB8ADF1080C6DE904CE00F0E0F86A
:10103000DDF804E0DDE9022304B07047704700BF2B
:10104000844641EA000313F003036DD1403A41D3D3
:1010500051F8043B40F8043B51F8043B40F8043B92
:1010600051F8043B40F8043B51F8043B40F8043B82
:1010700051F8043B40F8043B51F8043B40F8043B72
:1010800051F8043B40F8043B51F8043B40F8043B62
:1010900051F8043B40F8043B51F8043B40F8043B52
:1010A00051F8043B40F8043B51F8043B40F8043B42
:1010B00051F8043B40F8043B51F8043B40F8043B32
:1010C00051F8043B40F8043B51F8043B40F8043B22
:1010D000403ABDD2303211D351F8043B40F8043BC2
:1010E00051F8043B40F8043B51F8043B40F8043B02
:1010F00051F8043B40F8043B103AEDD20C3205D3D2
:1011000051F8043B40F8043B043AF9D2043208D0C9
:10111000D2071CBF11F8013B00F8013B01D30B883B
:1011200003806046704700BF082A13D38B078DD019
:1011300010F003038AD0C3F10403D21ADB071CBFEB
:1011400011F8013B00F8013B80D331F8023B20F855
:10115000023B7BE7043AD9D3013A11F8013B00F88E
:10116000013BF9D20B7803704B7843708B78837016
:10117000604670474FEA410C7FEA6C5C02D150EA4E
:10118000013C0AD14FEA430C7FEA6C5C02D152EA7F
:10119000033C02D14FF0000070474FF00100704750
:1011A0004FEA410212F5001215D211D56FF478738F
:1011B000B3EB625212D94FEAC12343F0004343EA32
:1011C000505311F0004F23FA02F018BF404270470D
:1011D0004FF00000704750EA013005D111F0004097
:1011E00008BF6FF0004070474FF00000704700BF2D
:1011F0002DE9F04786468C460846089E15467446FB
:101200001946002B40F0C2808542B2FA82F245D9DD
:101210004AB1C2F1200300FA02FC2EFA03F3954012
:1012200043EA0C0C94404FEA154EA8B2BCFBFEF802
:10123000230C0EFB18CC08FB00F943EA0C4399453C
:1012400028D9EB1808F1FF3704D2994502D9A8F143
:1012500002072B44A3EB0903A4B2B3FBFEFC0EFB75
:101260001C330CFB00F044EA0344A04214D92C19AF
:101270000CF1FF3304D2A04202D9ACF102032C449A
:10128000241A43EA07401EB1D4400023346073603F
:10129000BDE8F0874746DDE76346F1E792BB431BB5
:1012A00001214FEA154EAFB2B3FBFEFC200C0EFB42
:1012B0001C330CFB07F840EA0343984562D9EB184E
:1012C0000CF1FF3004D2984502D9ACF102002B4456
:1012D000A3EB0803A4B2B3FBFEFC0EFB1C330CFB18
:1012E00007F744EA0344A7424ED92C190CF1FF3307
:1012F00004D2A74202D9ACF102032C44E41B43EA16
:101300000040C0E7C2F1200320FA03F1954090406D
:101310002EFA03F303434FEA154EAFB2B1FBFEFCC6
:101320000EFB1C10190C0CFB07F841EA0041884524
:1013300004FA02F422D969180CF1FF3004D288456E
:1013400002D9ACF102002944A1EB08019BB2B1FB28
:10135000FEFC0EFB1C110CFB07F743EA01439F4206
:101360000ED9EB180CF1FF3104D29F4202D9ACF137
:1013700002012B44DB1B41EA004192E76046E3E7B0
:101380006146F7E76046A3E76346B7E7834206D9BD
:1013900016B9002108467BE7C6E900E0F9E7B3FA91
:1013A00083F78FB9834201D3724508D8BEEB02049C
:1013B00060EB030301209C461EB9002168E7384614
:1013C000FAE7C6E9004CF8E7C7F1200CBB4022FA67
:1013D0000CF41C432EFA0CF120FA0CF3B840014334
:1013E0004FEA14490EFA07F5B3FBF9F81FFA84FE29
:1013F00009FB18300B0C08FB0EFA43EA00439A4530
:1014000002FA07F240D9E31808F1FF3004D29A45F6
:1014100002D9A8F102002344A3EB0A0389B2B3FB6B
:10142000F9F809FB183308FB0EFE41EA03418E452B
:101430002CD9611808F1FF3304D28E4502D9A8F1E6
:101440000203214443EA0040A0FB0298A1EB0E01F5
:101450004145CE46434602D306D14D4504D2B9EBB1
:10146000020E68EB04030138002EA6D0B5EB0E0285
:1014700061EB030101FA0CFC22FA07F34CEA0303C7
:10148000F940C6E9003198E74046C5E74346D9E749
:101490002DE9F04F016C9FB016461F46CDE9046759
:1014A0002B9D039049B1426C4A600123934004464E
:1014B0008B601EF0BDFD00232364B7F10009B4BFAB
:1014C000012300232B60764BBCBF29F00049CDF8E7
:1014D000149033EA090300F0AA80DDE90434002205
:1014E000184621460023CDE90801FFF75DFD80463F
:1014F00068B12A9A012313602C9B13B12C9A694B73
:101500001360694B0A930A981FB0BDE8F08F1CABBB
:1015100001931DAB00930398DDE908231FF0BCF88D
:101520005FEA1955824640F09880DDE91C85454404
:1015300005F23243202B40F38383C3F1400309FAC1
:1015400003F905F2124326FA03F349EA0300FFF711
:1015500049FA0123013DA1F1F8711193534B002287
:10156000FFF702F948A3D3E90023FFF7B5FA48A330
:10157000D3E90023FFF7FAF8064628460F46FFF79F
:1015800041FA45A3D3E90023FFF7A6FA02460B462A
:1015900030463946FFF7EAF806460F46FFF700FEE9
:1015A00000228346002330463946FFF707FD002816
:1015B00040F01A83A8EB0508BBF1160F08F1FF34C1
:1015C00000F28B813A4D05EBCB05D5E90023DDE92F
:1015D0000801FFF7F3FC002870D00023002C0BF16A
:1015E000FF3B1093C0F27E8100230B93BBF1000FF1
:1015F0006ADA0B9BA3EB0B030B93CBF10003CDE952
:101600000EB3289B092B4FF0000B65D8052B40F338
:101610001C83043B28930025289B023B032B00F2EC
:101620002386DFE813F060045D04540438042A9A2A
:10163000C9F3130942F20F7359EA060913601CD16A
:101640002C9B002B00F02B861A4B0A9308332C9A04
:101650000A9813601FB0BDE8F08FDDE90812C2F3ED
:101660001303084643F07F51CDF84480A5F2FF35BF
:10167000DDF8708041F4401170E72C9B002B40F0A6
:10168000E7830D4B0A933EE761436F63A787D23F21
:10169000B3C8608B288AC63FFB799F501344D33F61
:1016A0000000F07FD5090308D40903080000F83FC3
:1016B000E8F60208180A0308240A0308B8F1000F24
:1016C00040F3608410900B9000230F93289BCDF87B
:1016D00038B0092B5C4499D90023CDE92833012582
:1016E0004FF0FF330C950693039B00215964069B32
:1016F000189303981EF076FC0A90002800F0BD8530
:10170000039B0A9A1A64069B0E2B00F21581002D8A
:1017100000F012810E9A002A40F33B84B24D02F091
:101720000F0305EBC303D3E9008913461511DA054E
:1017300040F1FA83AD4BDDE90801D3E90823FFF757
:10174000F5FACDE9120105F00F0503277DB1A74E8B
:10175000EB0708D540464946D6E90023FFF7BCF918
:101760000137804689466D1006F10806F0D14246E1
:101770004B46DDE91201FFF7D9FA80468946109BF6
:1017800043B19B4B002240464946FFF717FC002817
:1017900040F0F1843846FFF735F942464B46FFF7F3
:1017A0009BF9944B0022FEF7E1FF069B0646A1F150
:1017B0005077002B00F0A9800E9B1993069B129383
:1017C0000A9B894D49464046CDE914675E1CFFF7E8
:1017D000E7FC129905EBC10353E902120746CDE974
:1017E0001612FFF70FF902460B4640464946FEF730
:1017F000BBFF89460C993037DDE916238046FFB2DE
:10180000002900F053847C490020FFF78FFADDE9BE
:101810001423FEF7A9FF0A9D02460B46CDE91423C7
:101820002F7042464B46FFF7E7FB002840F09784B5
:10183000CDE91AB4CDF858A0129DDDE914AB00270C
:101840002AE00137AF4280F2DE846C4B50465946A5
:101850000022FFF741F9694B002282468B46404641
:101860004946FFF739F989468046FFF799FC044657
:10187000FFF7C8F802460B4640464946FEF774FF9C
:10188000303406F8014B52465B4680468946FFF7E6
:1018900095FB002840F0B48442464B465449002052
:1018A000FEF762FF52465B46FFF788FB0028C8D070
:1018B000199BDDF858A00A9A374603F1010802E0A7
:1018C000974200F07C843E4617F8013D392BF7D053
:1018D0000133DBB23B70454675E10123002C1093C8
:1018E000BFF682AEC8F101030B9300247EE63846B2
:1018F000FFF788F842464B46FFF7EEF83D4B0022D3
:10190000FEF734FF0646A1F150773D4B404649466D
:101910000022FEF729FF32463B4680468946FFF704
:101920006BFB002840F05A8440464946324607F196
:101930000043FFF743FB28BB1D9B002BC0F29280A6
:101940000E9A0E2A00F38E80274D0E9B05EBC305E1
:10195000D5E90034CDE90434299B002B19DA069B24
:10196000002B16DC0ED1264B0022DDE90401FFF727
:10197000B3F802460B46DDE90801FFF729FB002812
:1019800000F02C844FF000090A9E4F46299BDD434E
:1019900025E2DDE90445DDE9088922462B4640467B
:1019A0004946FFF7C3F9FFF7FBFB0646FFF72AF8A6
:1019B00022462B46FFF790F80A9F0B4602464946FF
:1019C0004046FEF7D1FE06F1300307F8013B069BC7
:1019D000012B00F012830125CDF818A09946DDE90E
:1019E00004ABA8462CE000BFE8F60208C0F60208E7
:1019F0000000F03F00001C400000E03F00002440D9
:101A00000000144052465B4620462946FFF78EF9F7
:101A1000FFF7C6FB0646FEF7F5FF52465B46FFF7AB
:101A20005BF808F101080B46024629462046FEF7FE
:101A30009BFE06F13003C84507F8013B00F0DB824E
:101A4000B94B0022FFF748F80022002304460D4658
:101A5000FFF7AAFA0028D5D00E9DDDF818A00135B1
:101A60003E46B0E00C9A002A40F0D28000230F9D41
:101A70000B9E0C931F4656B1002C08DDA6420B9A14
:101A80003346A8BF2346D21A0B92F61AE41A0F9BCC
:101A900053B10C9B13B1002D40F0E88251460F9AD0
:101AA00003981EF055FC8246039801211EF06CFB42
:101AB0008146BBF1000F40F0B681289B012B40F31B
:101AC000CC810120204410F01F0000F09A80C0F16A
:101AD0002003042B40F3DA810B9BC0F11C0003446C
:101AE0000B93064404440B9B002B05DD51460398E1
:101AF0001A461EF087FC8246002C05DD49460398F5
:101B000022461EF07FFC8146109B002B40F0708126
:101B1000069B002B40F348810C9B002B40F0A480D7
:101B20000E9D0135DDF82880069CDDF80CB00126FD
:101B300007E0514600230A2258461EF083FA013678
:101B40008246494650461DF0E3FFA64200F13003AD
:101B500008F8013BEDDB069A002AC8BF16460A9A30
:101B6000D8BF012602EB060B002451460122039840
:101B700004931EF047FC494682461EF0BBFC002839
:101B800040F3E3810A9A02E05A4500F0E9815E469B
:101B90000BF1FF3B16F8013C392BF5D001338BF8E4
:101BA0000030DDF80C80494640461EF041FA57B13E
:101BB0002CB1BC4203D0214640461EF039FA0398AE
:101BC00039461EF035FA039851461EF031FA0023CB
:101BD00033702A9B1D602C9B002B3FF494AC0A9819
:101BE0001E601FB0BDE8F08F5846FEF70BFF32466F
:101BF0003B46FFF7D9F900287FF4DCAC0BF1FF3B43
:101C0000D8E41C230B9A1A440B921E441C446AE726
:101C1000289A012A40F3A981069A0F9B551EAB42D0
:101C2000C0F26B81002AA3EB050580F2DD820B9BDD
:101C3000069A9E1A039801211EF0A6FA07461AE793
:101C4000C3F1200306FA03F081E40125E4E43946F8
:101C5000002303980A221EF0F5F9189B002B074673
:101C600040F3EF820E950693002E00F33F81BBF107
:101C7000000F40F0DF81B8460A9E069C731E1C448C
:101C8000049B0C9403F00103039C0F9349465046B8
:101C90001DF03EFF3946834650461EF02BFC42465F
:101CA0004946054620461EF045FCC26801460BF138
:101CB0003003002A3AD1089050460B931EF01AFCCC
:101CC0000899069020461EF0B3F9069A0B9B002A4D
:101CD0005AD1289A1AB90F9A002A00F09A82002D38
:101CE00045DB0C9AB346B2420BF8013B00F0B981D8
:101CF000514600230A2220461EF0A4F94745824699
:101D000039464FF000034FF00A02204636D01EF04D
:101D100099F94146074600230A2220461EF092F90F
:101D20005E468046B2E700BF000024400398069359
:101D30001EF07EF9002D069B06DB049A289902F01E
:101D400001020D432A432AD15146012203980493EC
:101D50001EF058FB494682461EF0CCFB0028049B2F
:101D600040F3E880392B00F02F820BF131030E9DF8
:101D700006F8013B3C460135474612E71EF062F982
:101D80005E460746804681E7002DC0F27D82289995
:101D90000D430F990D4300F07782002AA1DD392B06
:101DA00000F012820133E2E7289B022B7FF7B4AEEA
:101DB000069B002B40F01D814946052203981EF02A
:101DC00041F90146814650461EF094FB002840F33D
:101DD00010810A9E0E9D312306F8013B01350398C0
:101DE000494601351EF024F9002F7FF4E8AEEAE6FB
:101DF000494650461EF07EFB0028BFF689AE51468C
:101E0000002303980A221EF01DF90E9B5D1E0C9BF9
:101E10008246002B7FF41BAF189B002B40F3FF8101
:101E20000E9D06937EE601465A4603981EF090FAF0
:101E3000289B012B81466CDD4FF0000BD9F8103048
:101E400009EB830318691EF04DF9C0F1200039E653
:101E5000924B0A930333FFF7FABB049B002B7FF4EA
:101E600030AEDDE90412C2F31303002B7FF429AE78
:101E70008B4B134023B10B9B01330B930134012394
:101E8000BBF1000F40F0AE819B461AE63FF42BAE4B
:101E9000C0F13C03B6E601230C93299B0E9A134430
:101EA00018930133012B1E460693B8BF0126172E47
:101EB00040F3D581012204235B0003F11400B042FA
:101EC000114602F10102F7D9039B596411E4012381
:101ED0000C93299B002B33DD189306931E46E6E7EF
:101EE00000230C93D9E700230C93F2E739460398BB
:101EF00032461EF087FA0746B9E60F9B069A0F9501
:101F0000EB1A9B440B9B1E46134414440B93002571
:101F100090E6049B002B8FD1DDE90401C1F313038C
:101F20000A46002B88D1A3E7DDE908230227CDE983
:101F300012230BE47FF41BAFDA077FF518AF11E72C
:101F4000012329930693FFF7CFBB03D1049BDB0743
:101F50003FF518AE5E461BF8013D302BFAD020E667
:101F60000A9A3123013513701BE6119A002A00F0FA
:101F7000F98003F233430B9A0F9D16461A441C4412
:101F80000B9257E6C8F1010304460B931090FFF73C
:101F90009BBB00F0EB800E9B424D5E4206F00F03B0
:101FA00005EBC303D3E90023DDE90801FEF794FD47
:101FB0003511CDE9120100F04D813B4E002302277F
:101FC00080468946E80709D5D6E9002340464946B8
:101FD000FEF782FD01378046894601236D1006F128
:101FE0000806EFD1002B7FF4CAABDDE91289FFF7B9
:101FF000C6BB0A9ECAE4DDF818A00E9D02460B4639
:10200000FEF7B4FB02460B46CDE906230135DDE9B8
:102010000423A846FEF7F0FF40B9DDE90423DDE91B
:102020000601FEF7C1FF18B1F10701D50A9A4AE48B
:102030003E46C8E5796803981DF0D4FF05460028A0
:1020400000F026813B6902339A0007F10C010C3045
:10205000FEF7F6FF0398294601221EF0D3F98046C9
:102060000AE60E9D3C46013547467EE5DDF80C80CC
:1020700039462A4640461EF06BF95246014607464D
:1020800040461EF0AFF85146824640461DF0D0FF54
:102090000F9B5B1B0F933FF407ADFFE4240A03087B
:1020A0000000F07FE8F60208C0F60208DDE914013E
:1020B000FEF712FD0A9B1F70129B012BCDE90C014C
:1020C00000F0C680129F0A9BCDF844B01F447C4BA1
:1020D000002240464946FEF7FFFC89468046FFF74E
:1020E0005FF88346FEF78EFC0BF1300B02460B4681
:1020F00040464946FEF738FB06F801BBB74280462A
:102100008946E4D1DDF844B06E4B0022DDE90C01D4
:10211000FEF72CFB02460B4640464946FEF76CFF95
:10212000002867D1DDE90C2366490020FEF71CFB7F
:1021300002460B4640464946FEF740FF48B91D9B04
:10214000002BFFF693AC0E9B0E2B3FF78FACFFF7E7
:10215000FCBB3E46013F16F8013C302BF9D0199DDF
:10216000013530E51C9BC3F1360304E7DDE908893E
:102170000227FFF704BB069B002B3FF4B8AB189B6C
:10218000002B7FF7D9AB0E9A1293013A4C4B199260
:10219000404600224946FEF79FFC80468946781C4F
:1021A000FEF730FC42464B46FEF796FC464B0022BB
:1021B000FEF7DCFA0646A1F15077FFF701BB08F104
:1021C00001083123FFF786BB0E9D0A9AB3463923D7
:1021D0003C460BF8013B01354746D8E44FF0000977
:1021E0004F46F6E59B4629E60B9B1E4613441444D6
:1021F0000B931FE5199B0A9A03F10108FFF763BBD4
:10220000DDF858A0ABE7DDE91AB4DDF858A0FFF718
:1022100093BB392BD8D0002D3FF7A7ADA7E5289B5E
:10222000022B0ADC189B069349460E9D1DF070FC9C
:102230000A9A00F1300313708DE4189B06930E95F3
:10224000B6E5289B022BF8DC189B0E9506930BE550
:10225000374659E7DDE912890227FFF790BA039B59
:1022600000215964FFF745BA039B00255D642946A8
:1022700018461DF0B7FE0A90A8B9144B1448002266
:102280004FF4D57119F052FD002A7FF770AD5BE570
:102290000E4B0F482A4640F2EA2119F047FD0D4B3C
:1022A0000A93FFF730B9039B0A9A1A644FF0FF3381
:1022B0000122299518930C920693FFF73DBB00BFAE
:1022C000000024400000E03F00001C40280A0308F2
:1022D0003C0A0308180A0308F0B585B02F4C2046C5
:1022E0002CF07CFC30B92E481EF0C6FB4FF0FF30BE
:1022F00005B0F0BD26694FF42022A5680621336899
:10230000204623F0400333602B6898470028EDDB1C
:1023100033685B064FF0400154BFEB682B692046E1
:102320009847642611F0ECFD1E4F1FF006FD15F0D6
:1023300093FE1D4904462BF0BFFB002309212046D4
:1023400000241A4621F014F811F0DAFD1FF0F5FC14
:1023500015F082FE322300220921054621F008F8FB
:10236000124883685B689847B4FBF6F306FB134397
:102370004BB969460A22B4FBF6F01EF0DDFA694655
:1023800028462BF099FB12F08FFA01340A20002125
:1023900019F026FABC42E7D10024EAE75CF0020813
:1023A000140F03083D860100280F0308D4F002082B
:1023B00038B5044C044DAC4200D338BD54F8043B4E
:1023C0009847F8E70CF602080CF6020838B5054CF9
:1023D000256804EB850405B938BD54F80439013D7E
:1023E0009847F8E700F602082DE9F04F91B084070E
:1023F00005460E46009302F00403DDF86890029350
:10240000C2F3C203039203F10103059340F0BA81C2
:10241000041D30B1072909D86FF01B0011B0BDE8C9
:10242000F08F01F00706341DC6F10806009B4FF03F
:1024300000084FF0040A591E4FF0FF334746C346C9
:1024400001935346CDF810800DB1009A2260059893
:10245000002800F3E8809848009A824203D3974806
:102460008242C0F0E080039AA4EB050E92074FEA87
:102470009E0000F103810F2F00F2B180002D00F0CB
:10248000058107F140020DEB020C019A0CF8200CBB
:102490000CF8102C049801300490E7E07A285DD8FD
:1024A0004B280ED8472859D829282DD8252852D06E
:1024B00054D820287AD02338D0F1000B4BEB000BF6
:1024C00074E04C382E2849D8DFE800F070484848BE
:1024D00048484848484848484B4848484848484879
:1024E0004859484B4B595959704B6D487048184BD7
:1024F000184848827F4B48484B487F0000204FF0E7
:10250000000B4FF0040A38E02A380122C0B202FA68
:1025100000F010EA0E0F49D110F0625C2FD110EAE2
:10252000020B43D06046013C5444B4FBFAF40AFB6E
:1025300004F4002D61D0A3EB050CA4446645FFF420
:102540006BAF002868D1042B47D159F8043B2360B6
:10255000043404232AE0019A013A01924FF0000B5F
:1025600024E011F8010C6C2834D111F8023C002051
:102570006C2B8346C5D14FF0080A5346D3E709F1C7
:102580000709073429F0070924F00704F9E802AB2A
:1025900035B106982044B0423FF63EAFC4E900ABE7
:1025A00008344FF0000B4FF0080A534611F8010FA2
:1025B000002878D0BBF1000F7FF470AF2528F5D14B
:1025C000019B4FF0010B013301934FF0040AECE73C
:1025D000584694E700208346A5E7082B02D06FF009
:1025E00015001BE709F1070929F00709F9E802239B
:1025F000C4E9002308340823D8E768B9042B02D1C2
:1026000009F10409A4E7082BE9D109F1070929F028
:10261000070909F10809EDE7059A013A059259F809
:10262000042B009210E7039A900720D5A4EB050E27
:102630004FF0010C4FEA9E00BEF5007FCFD20F2F66
:10264000CDD8F5B107F14002C0B20DEB020E019AF0
:102650000EF8200C0EF8102CBCF1000F3FF41AAF4E
:1026600060F07F0008F101080EF8200C0137C5F179
:10267000080204344FF6DA7E069297E74FF0000C1A
:10268000DAE7BCF1000F01D00136EFE7029802361D
:102690000028EBD10098CDE90631FDF731FE064464
:1026A000DDE90631E2E7631BB3F5806F97D23DB9F0
:1026B000A6F10804E018B1E6A8EE02086C51030880
:1026C0009B08029A28602B709DF81030C2B1EB7005
:1026D00085F80280B8F1000F05D008A80022C5F1E6
:1026E000010C97420ED1C5F101030DF120094FF005
:1026F000000A0DF1300B0193574512D1601B8DE696
:102700006B70E5E710F8013B190608D504EB0C0ED9
:1027100003F07F037645FFF47FAE04F8013B0132FE
:10272000DFE7B8F1000F03D099F90020002A17DB8A
:10273000029BD3B11AF80B2004F8012B0022019B55
:10274000981820448642FFF467AE99F8000000997B
:1027500004F8010B20460392FEF772FC039A14441E
:102760000AF1010A09F10109C6E799F8002055F8B4
:1027700022300093029B009845F82230FDF7C0FDFF
:10278000421CDCE76FF00D0048E600BF2DE9F04F7A
:1027900095B004468A4600AF90F802B0BB61BB6FAB
:1027A0007A62C3F3C0033B6141B9457800780BEB13
:1027B00080002044554517D8A0EB040AE3787B61DC
:1027C000BBF1000F02D0BB6FD80716D47B6953BB97
:1027D0007B6A1BB1BA695146204698475546284640
:1027E0005437BD46BDE8F08F461C0AF1010A304659
:1027F000FDF786FD01303044DCE7237862683B62F8
:102800009B00FA61FB603B6A04EB83097B6A002B47
:1028100040F0FE805546C84609EB0B0A0026D0451D
:1028200051D1D94413E0BB6F9907D1D5237899468C
:102830003B629B0004EB8909FB606368FB617B6A78
:10284000002B7AD15546BBF1000F4FD15E46BB6FCE
:1028500013F0050F7B6909EB430ABB6F0CBF4FF008
:10286000020B4FF0010B03F002037B62D145B6D09F
:1028700019F8021B19F8013C54F82380AA4B98451B
:1028800002D3AA4B984538D33B69002B42D0F86954
:102890001EF0B9F800283DD0E8468AB06A46A44B3D
:1028A0005361FB69C2E906314FF400731384A14BF5
:1028B00042F8103F00234FF412519F48023D01F0AF
:1028C00065F8C546D2E718F8013B54F82300FDF738
:1028D00017FDFB6F01303BB1D7F880309E423EBF01
:1028E000FB6F23F816000136054498E7BB6F13F021
:1028F00004061CBFD9447E6AA9E73B6923B1F86985
:102900001EF081F80028C7D1BB6FDA0705D4A5EB0C
:102910000B05ABE77B6A002BA8D04046FDF7F0FC27
:10292000FB6F43B1D7F880309E423FBF431CFA6F24
:1029300022F816300136054498E7BBF1000F6DD040
:10294000BB6F13F004066CD0D846002607F1400098
:102950005A464946FEF774FB7B69D9445B007B60AD
:102960007B6909EB4303BB60BB6F03F002033B6071
:10297000BB684B4557D1B96F63788907B86F06EBD1
:10298000030254BF4FEA58010021C507D2B200F13B
:102990009A8010F0040F14BF40460020FB61627063
:1029A000A0702046E170BA69F9687B6A9847051EF5
:1029B000FFF615AF3B6A4146BA6907F14000237044
:1029C000FB6984F802B063707B69E3707B6A9847A7
:1029D000B0F10008C0F2A480FB68AAEB0B01BA6951
:1029E0004846C91A7B68C91A7B6A98470028C0F212
:1029F0009980A8444FF0000B07F1300A08EB00055E
:102A0000B34562D30021BA697B6A08469847E6E677
:102A10005E464FF0000807F1300099E75E46D84661
:102A20009AE7B04698E719F8021B3F4B19F8015C8A
:102A300054F82500984202D33C4B98421DD33B6981
:102A400023B1F8691DF0DFFF002891D13B68FBB985
:102A500008F1280307F1280208F1010008F1020833
:102A600003EB020C07F150035FFA88F853FA80F089
:102A70000CF8101C00F8105C7AE73B692BB1F86980
:102A80001DF0C1FF00287FF473AFBB6FDB0709D5D2
:102A900006F1280307F12802711C9E1806F8205C35
:102AA000CEB265E7BB6F58077FF562AF08F1280328
:102AB00007F1280208F1010103EB020808F8105C95
:102AC0005FFA81F854E7002068E71BF80A3054F8F1
:102AD000239087F82F30FB6FFBB133F81B80BA6966
:102AE000012107F12F007B6A984700281ADB054473
:102AF000B8F1000F06D14846FDF702FC00F10108CD
:102B00001FFA88F8BA69414648467B6A9847002808
:102B100008DB05440BF1010B72E7D7F87C80DEE798
:102B200045465CE605465AE6A8EE02086C510308E5
:102B3000390F03080400000114F60208014B186065
:102B4000704700BF9806002430B5002587B00446C2
:102B500000950595CDE9030103A9054800F06CF83F
:102B6000DDE904309842B8BF255407B030BD00BF3E
:102B7000550A0208F0B502460168084E00200A27EF
:102B80000B4601311C78355D6D0701D41360F0BD33
:102B900007FB0043A3F13000F2E700BF91080308F0
:102BA0002DE9F84F15469A46D3788046214A0F46BC
:102BB0006F2B12F803B00BF0030B29D024D8582B3D
:102BC0000CBF10260A26DDF8289032460023404626
:102BD0003946FEF71BFA092AD4B21ED83034B04564
:102BE000E4B277F1000709F8014D01D3D14511D8BE
:102BF0002B789B0605D5082E15D1AB7843F008033A
:102C0000AB704846BDE8F88F03F0F703702BD7E7A9
:102C10000826D8E780460F46D7E7BBF1010F0CBF67
:102C200037345734DBE7102EEBD1AB7843F0100389
:102C3000E6E700BF910803082DE9F04F8A4697B0F8
:102C400016461C4600250390307808B928464BE309
:102C5000731C2528049307D05146039B98470028EE
:102C6000C0F242830135F0E11822002110A819F0CA
:102C700035FF7378252B00F0A3800023711C984644
:102C80009E469C4618460F4611F8012B2B2A00F051
:102C9000C68000F2BD80202A00F0C480232A00F004
:102CA000C4802BB19DF8483043F040038DF8483084
:102CB000B8F1000F05D09DF8483043F020038DF89F
:102CC0004830BEF1000F05D09DF8483043F01003A6
:102CD0008DF84830BCF1000F05D09DF8483043F026
:102CE00008038DF8483028B19DF8483043F00403BC
:102CF0008DF848309DF8483003F04401442903D151
:102D00006FF386138DF848309DF848302A2A0997CA
:102D100043F080038DF8483040F08C809DF84930B6
:102D200043F001038DF849307B1C1A782E2A9DF858
:102D300049200CBF0121002161F341028DF8492097
:102D40000CD15A1C09925A782A2A40F083809DF8A7
:102D50004920023342F004028DF849201A786C2A87
:102D600000F0A48000F28680682A00F08C806A2A35
:102D700000F0A5804C2A00F0AA801A4612F8013B08
:102D8000782B04928DF84B309DF8492000F2178182
:102D90006D2B00F2A980692B00F21181572B00F2F4
:102DA000BE80412B03D0453B022B00F208819DF8E9
:102DB0004A30042262F302038DF84A300123CAE04C
:102DC000B21C8DF84B3004929DF84930D90740F180
:102DD000FD8054F8048BB8F1000F07DA9DF8482005
:102DE000C8F1000842F004028DF848205A0740F16B
:102DF000F68054F804BBBBF1000F80F2F5809DF81B
:102E000049306FF341038DF849304FF0FF3BEBE061
:102E10002D2A0DD0302A7FF444AF012333E74FF041
:102E2000010C30E74FF0010E2DE74FF001082AE7C3
:102E3000012028E709A8FFF79DFE099BBB423FF44C
:102E400074AF9DF848201390C00F60F341028DF8D5
:102E500048206AE709A8FFF78DFE9DF848301490D6
:102E6000C3F3400242EAD07262F341038DF8483066
:102E7000099B73E7742A26D07A2A7FF47EAF9DF8E7
:102E8000492006210CE05A78682A9DF8492006D18D
:102E9000012161F3C60202338DF849206DE702215A
:102EA00061F3C6028DF84920013366E75A786C2A2F
:102EB0009DF8492001D10421EBE70321F0E79DF8BB
:102EC00049200521ECE79DF849200721E8E7BDF8F6
:102ED000482022F4F04222F0020242F4804242F002
:102EE0000202ADF84820DFE76E3BD9B201238B40E8
:102EF00040F282410B4238D113F0240F52D1DF0748
:102F00005DD59DF84A30032161F302038DF84A3004
:102F100002F07803A3F14000434243411BE0A3F1D8
:102F200058010120C9B200FA01F111F4624F7FF497
:102F30003EAF40F6010739421DD111F4043F3ED0A7
:102F40009DF84A3060F3020302F078028DF84A30AF
:102F5000402A34D000239DF84820C2F340010B439F
:102F600063F341028DF848202EE79DF84A30022194
:102F700061F30203E8E79DF84A10022002F07802AC
:102F800060F30201402A8DF84A1002BF9DF84810F4
:102F900041F001018DF84810632BDBD1131E18BFDF
:102FA0000123D8E79DF84A30032112F0780F61F32E
:102FB00002038DF84A3014BF01230023CBE79DF8AC
:102FC000483043F001038DF84830C3E79DF94820AD
:102FD000002AB4BFDDF84C804FF0FF3806E79F07AA
:102FE0007FF513AFDDF850B000239DF84910CDE90F
:102FF00013339DF84A30C1F3C30103F00703012BDB
:1030000033D1CB1E042B04D8DFE803F02146462140
:103010002100236801294FEAE372CDE910321CD167
:103020009DF94030DA17CDE9103204349DF848306C
:1030300013F0030750D0049B3246514603981DF00D
:1030400020FE0028C0F250810544049EFCE554F89F
:10305000043BDA17CDE91032E8E70229E5D11AB2CC
:1030600043F3C033CDE91023DFE7022B24D1CB1E7D
:10307000042B04D8DFE803F01810101818000129F9
:1030800054F8043B4FF0000214D00229CDE910326D
:10309000CCD19BB21093C9E7073424F00704F4E8BD
:1030A0000223CDE91023C1E754F8043B1093002319
:1030B0001193BBE7DBB2CDE7042B08D1073424F032
:1030C0000704D4E900230834CDE91023AEE7032B2D
:1030D000ACD154F8043BDDE79DF84B007828B4D818
:1030E00062281DD825283FF4B7AD5828ADD10DF181
:1030F0003E0312AA00930AABDDE91001FFF750FD71
:10310000BBF1000F814680F29980B9F1000F9CD08D
:103110000DF13E06A6EB0903002F50D001334EE01F
:103120006338152891D801A252F820F0AD3100087B
:10313000113200084B3000084B3000084B300008BB
:103140004B300008113200084B3000084B300008AB
:103150004B3000084B3000089D3200083732000821
:103160005F3200084B3000084B3000088531000802
:103170004B300008373200084B3000084B30000855
:1031800037320008BBF1000FDDF840900ADB5946EA
:10319000484619F0D3FFB9F1000F3FF456AF09EBE1
:1031A000000677E04846FDF7ABF8F8E7109B0027EC
:1031B0000DF129060DF128098DF8283001239DF81D
:1031C0004A1011F01002069200F082800233139A26
:1031D000134405924A0644BF14995B18B8F1000FD6
:1031E00040F38F80A8EB03089DF848305807C3F3DD
:1031F000800B00F18680590679D53FB1514638469B
:10320000039B984700286FDB01355F4630236FE052
:103210001E0756BFC3F300132B275F01DDE9102300
:10322000002BBFF664AF52424FF02D0763EB430310
:10323000CDE910235BE7002759E700270DF13E0396
:103240009DF84810A3EB09036FF386119B458DF899
:1032500048107FF65AAFABEB0303139355E7109872
:1032600080B30DF13E060AAB12AA00210096FFF7CB
:1032700097FCBDF84A30BBF1000F814603F0EF0325
:1032800043F4F04343F01003ADF84A30D5DA002898
:103290003FF4DBAEA6EB0903002790E7109B07295C
:1032A0003FF6D3AEDFE801F00C04060C08080C0C66
:1032B0001D70CAE61D80C8E6EA17C3E90052C4E6DD
:1032C0001D60C2E6304E07460523A6F1050976E7E4
:1032D000080748BF01337AE7184607935146039B16
:1032E00098470028079B04DA17B0BDE8F08F202329
:1032F000C34659460BF1FF3B0029EDDC4544D84657
:103300006D1A37B151463846039B98470028EBDBCE
:1033100001359DF84A30DA0601D41B0706D551461F
:103320003020039B98470028DEDB0135069B3BB12C
:1033300051469DF84B00039B98470028D4DB01358C
:10334000059F2F4406E051463020039B98470028F4
:10335000CADB01357B1B002BF5DC33464A46514660
:1033600003981DF08EFC0028BEDB0544A844A8EBA2
:103370000503002B7FF769AE51462020039B984739
:103380000028B1DB0135F2E7F20F0308324B70B5CC
:103390005A6912F4003211D1BFF34F8FBFF36F8F10
:1033A000C3F85022BFF34F8FBFF36F8F5A6942F4B7
:1033B00000325A61BFF34F8FBFF36F8F264A5369B4
:1033C000D90327D4536913F4803323D1C2F884304E
:1033D000BFF34F8FD2F8803043F6E074C3F3C900D7
:1033E000C3F34E335B0103EA0406014646EA8175E6
:1033F0000139C2F86052F9D2203B13F1200FF2D10B
:10340000BFF34F8F536943F480335361BFF34F8F42
:10341000BFF36F8F114B124A1A60124BDA6822F019
:10342000070242F00202DA609A6942F440429A616D
:103430009A699204FCD50C4B1A6841F20303B3EB72
:10344000124F06D1094AD2F8083143F00103C2F8FD
:103450000831002070BD00BF00ED00E038070024F7
:103460000090D003004802580010005C008000511A
:103470002DE9F047044607464FF00109DFF8508078
:1034800014B93846BDE8F08794FAA4F5B5FA85F585
:1034900009FA05F32E0108EB05156FEA030A24EA81
:1034A00003042B7B002BEBD058F806301B694BB97B
:1034B00046440422284607EA0A077368196800F0A0
:1034C00051FADDE7284698470028D9D1F0E700BF38
:1034D0006CF6020830B5002289B00F490F482BF076
:1034E000AEFC0022002300240D4D0E492846009416
:1034F000CDE906230E234FF44072CDE90334CDE924
:103500000144094B17F032FD084928462BF084FB93
:10351000204609B030BD00BF31350008A80E002498
:10352000200A0024C01601241138000820100308C6
:10353000014817F047BE00BF100A00242DE9F047EC
:1035400080461E480F461DF01CFE064678B3002537
:103550002846BDE8F087237B73B12368DB680BB195
:103560002046984723681B69CBB96368042220462C
:10357000196800F0F7F9013610344C45EBD3B8F177
:10358000000FE5D0002DE2D02846FFF771FF054679
:10359000002FF7D00021642018F022F9F2E720462E
:1035A00098470028E1D00AFA06F31D43E3E7044CEC
:1035B0000546DFF810904FF0010ADEE720180024DE
:1035C0006CF602087CF60208014B53F820007047A5
:1035D00008F8020808B5034608462BB1044A1360F0
:1035E00000F076FC002008BD6FF01500FBE700BF7F
:1035F0009C06002410B5044C237813B9034817F037
:10360000E1FD0123237010BDA0150124100A002440
:1036100010B5044608481DF0B4FD5CB1074BBFF37C
:103620005B8F53E8001F013943E80012002AF8D1EC
:10363000BFF35B8F10BD00BF181800241C180024B6
:103640000020064BBFF35B8F014653E8000F43E8B1
:103650000012002AF9D1BFF35B8F704718180024BD
:1036600070B5FFF7EDFF084C0546084EB44200D395
:1036700070BD63685B792BB123685B6813B1294621
:10368000204698471034F1E76CF602087CF60208F1
:1036900010B5044C044920461DF004FC034B1C608B
:1036A00010BD00BF90090024F4F702081018002490
:1036B00008B5084A00234FF47A7107481370074A87
:1036C0001360074A1360FFF785FFBDE80840FFF766
:1036D000DFBF00BFA11501249D11020818180024A6
:1036E0001C18002401460022002301481DF0FBBBEA
:1036F0009009002401481DF094BC00BF90090024EB
:10370000024B014618681DF0DEBC00BF10180024F3
:1037100001481DF014BD00BF90090024254B70B571
:103720001878002844D0FFF7E5FF054690B1224BFA
:10373000BFF35B8F53E8001F013943E80012002AF2
:10374000F8D11E4CBFF35B8F1D4EB44226D32846E2
:10375000FFF7D6FF1B4B1C4C1B68002B12DD2BF018
:103760006CFB0A220023FDF751FCD4E90032C01A99
:1037700040F2E93361EB0201984271F1000101D39B
:10378000FFF76EFFD4E9003213F57A7342F10002BD
:10379000C4E90032BDE87040FFF7BABF63685B79E7
:1037A00023B12368294620461B6898471034CCE78C
:1037B00070BD00BFA01501241C1800246CF602087F
:1037C0007CF6020818180024A00E002470B50D4DD8
:1037D000297861B90C4C01200C4EFFF7AFFEB442C2
:1037E00006D3FFF79BFF0028FBD101232B7070BD90
:1037F00063685B791BB1236820469B689847103447
:10380000EDE700BFA11501246CF602087CF6020862
:1038100000212DE9F0470846FFF790FE044648B323
:103820004FF4FA784FF0000917F0F2FF1A4B1860C6
:1038300030B11A4B1B68092B02DD194817F0C2FC86
:103840000025184FDFF858A044B12046FFF710FEBE
:10385000044618B94FF0FF384FF0FF39FFF75EFF0D
:10386000064628B9B5B942464B46504617F0CEFC3D
:103870003546E9E74FF0FF384FF0FF39D4E72B68C2
:103880009B691BB100222846114698471035BD425E
:10389000F5D3E8E7044DFAE7141800241C180024B7
:1038A000100A00247CF602086CF6020813B51848CA
:1038B0001DF067FC174B1B787BB14FF01003EFF343
:1038C000118483F31288BFF36F8FFFF727FF84F310
:1038D0001188BFF36F8F02B010BD0F4B1B68002B18
:1038E000F9D050B9002200230C48CDE9002342F260
:1038F0001072002318F0CCF9EDE70928EBD1074846
:103900002BF0A9FA064802B0BDE8104017F05ABCE7
:103910001C180024A115012414180024A80E00244A
:10392000100A0024064B10B504461B689847214630
:10393000A06004481DF055FBBDE81040FFF7B6BF7E
:103940009C06002490090024044A054B9B1AB1EB05
:10395000D30F34BF52F83100002070470CF6020834
:103960006CF60208084BC31A1B1110B401334468EB
:10397000237143689A7101224368196043685A7140
:1039800010BCFFF737BE00BF6CF602082DE9F04F00
:103990008FB0C1F34A280D46914604AF0C0DB860B4
:1039A0007B60B8F1000F63D0002607F114034FF0DD
:1039B000040B4FF00A0AC7F80C8032467E62484674
:1039C000C7E90766019307F11C03CDF808B0CDF8ED
:1039D00000A0F968FEF7DAFEB0F5006F03461CD3CD
:1039E0006C468AB0D9F8041004AB26481A46C3E9DD
:1039F000050140F2FF71D9614FF400711984224B27
:103A000042F8103F4FF4125133462048FFF7BEFFF3
:103A1000A5462C37BD46BDE8F08FC0F30A0804F177
:103A200017003B60184468F3532520F00700800816
:103A3000FFF758FE044690B13B6800F11001144AAC
:103A40004846F961C7E9083607F11403CDF808B014
:103A5000CDE900A307F11C03F968FEF797FE68F3B0
:103A600053257B68B96820462A461DF0C8FBD0E77D
:103A700004F1170020F007008008FFF733FE04462A
:103A8000EDE700BF35100308040000012CF6020822
:103A9000D31102082DE9F04F87B004460F46934634
:103AA0009846DDE91269DDE9105AA6B310213346C4
:103AB00052460020CDF80090CDF81490FEF794FC0B
:103AC000014604F0070405F117000BF0070B134B38
:103AD000E400084403EA4123039144EA8B1420F0F4
:103AE00007001C438008FFF7FDFD44EA0554054626
:103AF00040B13EB13346524603991030CDF80090A4
:103B0000FEF772FC434622463946284607B0BDE818
:103B1000F04F1DF074BB3146D3E700BF00FE0F002D
:103B20000EB403B503AB0146054853F8042B0193CB
:103B30001DF08BFB02B05DF804EB03B0704700BFD3
:103B400073120208CA0605D48B064CBF024903490A
:103B5000FFF7E6BF704700BF751003087410030835
:103B60002DE9F04F89B09A4604460D469DF848B0BD
:103B7000169E0692DDE913730593159B0493BBF122
:103B8000000F00F0858006F0080306F00209079395
:103B90001DF01DFB0246002849D086492046FFF74C
:103BA000BFFF8046B9F1000F08D016F0440F40D196
:103BB0002A4681492046FFF7B3FF804406F00103FF
:103BC00053B17E4B20467E4953F82B207D4B002A73
:103BD00008BF1A46FFF7A4FF06F00803002B54D0D5
:103BE000794B2046794953F82B20FFF799FF05467A
:103BF000069B2BB11A4676492046FFF791FF0544F4
:103C0000BAF1000F05D0524672492046FFF788FFEF
:103C100005444544002F49D1049B002B4FD1F307A5
:103C200000F1C18031462046FFF78CFFB5E08046A9
:103C3000B8E7694B18680028BFD0684B4FF47A7911
:103C40004FF461614FF03C0C1B68B5FBF3F5B5FB1D
:103C5000F0F300FB135509FB05F5B3FBF1F2B5FBDF
:103C6000F0FE01FB123100FB1E55B1FBFCF309FB1A
:103C700005F50CFB1311B5FBF0F5009120465849F2
:103C8000CDE901E5FFF74CFF97E706F00805AFE740
:103C9000BAF1010F06D1002F65D1049B002B7CD017
:103CA00000250CE0002FF8D04E485DE04E483B4622
:103CB00022464E491CF076FE049B002B69D0DFF8AB
:103CC0003081DFF83091049F4FF0000A31462046E2
:103CD000102F28BF1027FFF735FF554546DC059B01
:103CE0004FF0010A494620461A78FFF719FF1AF0EB
:103CF000070F03D141462046FFF712FF57453CD935
:103D0000059B4946204613F80A20FFF709FF0AF1F0
:103D1000010ABAF1100FEAD14FF0000A36492046E5
:103D2000FFF7FEFE5246059B20469A5C334B995C9A
:103D300011F0970F324908BF2E22FFF7F1FE0AF16A
:103D4000010ABAF1100F1DD01AF0070F03D1414636
:103D50002046FFF7E5FE57455246E4D84146204647
:103D6000FFF7DEFEEBE720485D46A0E74146204630
:103D70000AF1010AFFF7D4FEAFE722492046FFF718
:103D8000CFFEC4E7059B3B440593049BDB1B0493D8
:103D900099D1BBF1000F7FF442AF204609B0BDE8D6
:103DA000F04F1DF059BA074A20460549FFF7B8FE03
:103DB00038E700BF7C1003088010030818F80208D9
:103DC000031C0308771003082CF80208A510030849
:103DD000AB100308AF10030828180024241800248F
:103DE00089100308A9120208731202084B12020874
:103DF000BC100308B4100308BE10030891080308A0
:103E0000C0100308BA1003082DE9F0410F8886B0EE
:103E10004B6805460C4690468E68C7F382175BB127
:103E2000144A9B1A43F3CF01002920DB2078C0F30A
:103E3000C200FFF789FD03462146608851F8102B28
:103E4000C0F30B100097C2F34A22002A01EB0204D0
:103E50004FF0000208BF0021CDE90308CDE90114AD
:103E600028463146FFF77CFE06B0BDE8F08100230E
:103E7000E2E700BF0CF6020842F20F73114A8B42D0
:103E800073B5044628BF0B460568052168461CF03B
:103E900000FE636806460B2228465B680A491DF04F
:103EA000C7F963683246694628465B681DF0C0F969
:103EB00063681B2205495B6828461DF0B9F902B00A
:103EC00070BD00BFBC500308DF100308C310030817
:103ED00000210123064A904206D8064A01B901236F
:103EE0001360054B18607047400801215B00F2E742
:103EF00040420F002418002428180024014B002001
:103F00001960704740180024024B012202481A70C1
:103F10001DF0A2B9A31501245CF802080148FFF7BF
:103F2000ABBF00BF5CF80208064B10B50C46186822
:103F3000FFF74AFB0F22034621460348BDE8104025
:103F4000184700BF401800245CF80208F8B50D4679
:103F500004464618054FB44201D12846F8BD14F86E
:103F6000011BBB6801485B689847F4E798F00208BA
:103F7000014910220A60704710ED00E072B640401F
:103F800080F31188BFF36F8FBFF34F8F30BF62B6DE
:103F9000BFF36F8F704700BF2DE9F047814600AF38
:103FA0000C4600294CD06E468AB0A3686D46D1E914
:103FB000001227484FF0050AA846C5E90501C5E9E2
:103FC000072348F810AF002342464FF421512148FF
:103FD000FFF7DCFCB5466369AD46D4E903121E4821
:103FE000C5F810A0C5E90501C5E90723002342462D
:103FF0004FF421511748FFF7C9FCB546E36988B073
:104000006D46164A4FF0030AA846C5E9052348F84D
:1040100010AF002342464FF4C2510E48FFF7B6FCE2
:10402000B546A369AD460E4AC5F810A0C5E90523FB
:10403000002342464FF4C2510648FFF7A7FCB5469D
:104040002146484616F0D8FDBD46BDE8F08700BFC2
:104050002511030854F602085411030883110308BC
:104060009211030800B2002807DB0123410900F088
:104070001F00024A834042F82130704700E100E00F
:1040800000B2013100284FEA0111C9B206DB00F18C
:10409000604000F5614080F80013704700F00F00A9
:1040A000014B1954704700BF14ED00E030BFFFF71B
:1040B000FDBF00BF0F4A08B522F07F020E4B9A6089
:1040C000BFF34F8FBFF36F8FD3F8882022F47002B5
:1040D000C3F88820EFF3148323F0040383F31488D8
:1040E000BFF36F8F16F048FE17F0F8FB00F0CCFB23
:1040F00016F09EFE0000000800ED00E0094A0A49A3
:10410000936809685867996708494B6843F080537A
:104110004B60002383F31188BFF36F8F9368986F10
:10412000704700BF081501242008030800ED00E0D7
:1041300012498A684FF030001044EFF3098C80E890
:10414000F01F102080F31288BFF36F8F0C4F4FF0D9
:1041500000664A698A603E60506F0023536780F3AF
:10416000118804B5104600F0D3FBBDE8044002F10D
:10417000300090E8F01F8CF309887047081501247F
:1041800004ED00E01EF0040F0CBFEFF30880EFF326
:104190000980816911F8021C0229FFD001B51DF0C8
:1041A00092F801BD42F8203C203A009B0749536039
:1041B000019B21F001019360029B9161D3604FF05C
:1041C0008073D3610023026543677047AD0A02081C
:1041D000094A0346906870B113F1160F406E05D07E
:1041E000A0F140029A4205D8834203D2814228BFFF
:1041F00000207047002070470815012408B5094BBE
:104200000D461446986000F083FB204685F309882C
:10421000002163B681F31188BFF36F8F0022002362
:104220001CF044FC0815012401B5EFF30580A0F152
:1042300010004FEAC0000449014409C99847BDE88D
:104240000140024908470000E8F002085142000816
:10425000044B99685869884203D003494FF0805253
:104260000A6070470815012404ED00E02DE9F041D3
:1042700086B006460D4600AF474B02244FF48251EC
:1042800007F110027B6145483C611DF02BF8444B5F
:104290009B6AD9046DD5434B07F110023F484FF498
:1042A0008251C7E904431DF01DF817203C4B9B6A5F
:1042B0001A050BD53C4B07F1100238484FF48251D8
:1042C0007B6102233B611DF00DF81820344CA36A7A
:1042D0009B0523D5E846354B07F110022F484FF4D4
:1042E00082517B6102233B611CF0FCFFA36BA26A3D
:1042F000100412D588B06A462D492848C2E9051332
:1043000003234FF4C25142F8103F1CF0EBFFC546A7
:104310001EB1A36A23F40043A3621920204B9B6AB9
:1043200059050BD5234B07F110021C484FF482515D
:104330007B6102233B611CF0D5FF1A20184B9A6A5F
:10434000D20518D51C4B07F1100214484FF48251C6
:104350007B6102233B611CF0C5FF1B20104A18370C
:10436000936A43F47F43936200232B70BD46BDE8FC
:10437000F08116209AE79B6A9B04EFD50F4B07F15B
:10438000100206484FF482517B6102233B611CF00E
:10439000A9FF1C20E2E700BFC011030854F6020881
:1043A00000ED00E0D6110308E7110308FA11030835
:1043B0001312030828120308431203085B120308B0
:1043C00010B586B0364B022404AA4FF4825135480A
:1043D000059304941CF086FF334B9B6A9A015DD5CC
:1043E000324B04AA2F484FF48251CDE904431CF00C
:1043F00079FF1E202C4B9B6ADB010AD52C4B04AAAB
:1044000028484FF482510593022304931CF06AFF5D
:104410001F20254B9B6A1C030AD5264B04AA214862
:104420004FF482510593022304931CF05BFF21207B
:104430001D4B9B6A59030AD51F4B04AA19484FF418
:1044400082510593022304931CF04CFF2220164B4B
:104450009B6A9A030AD5194B04AA12484FF4825159
:104460000593022304931CF03DFF23200E4B9B6A0F
:10447000DB030AD5124B04AA0A484FF48251059374
:10448000022304931CF02EFF2420074A936A6FEA4C
:1044900003436FEA1343936206B010BD1D20A9E7E2
:1044A0008A12030854F6020800ED00E0A212030885
:1044B000B5120308CF120308ED1203081213030804
:1044C0002C1303082DE9F04786B081468A469046B2
:1044D00000AF514B022407F110024FF482517B616F
:1044E0004E483C611CF0FEFE4D4B9B6ADE0645D5F6
:1044F0004C4B07F110024FF482514848C7E904437E
:1045000011241CF0EFFE464B9B6A1D070BD5464B52
:10451000122407F110024FF482517B6102233F48BD
:104520003B611CF0DFFE3E4DAB6A980728D56C4618
:104530003E4B4FF4825107F1100238487B61022351
:104540003B611CF0CFFE6E6BAB6A190660D588B07C
:104550006A46374B4FF4C2513048C2E9053603234F
:1045600042F8103F1CF0BEFEA546BAF1000F03D082
:10457000AB6A23F08003AB62132403E01024C2E78C
:104580006FF01506264B9B6ADA070BD5294B1424CE
:1045900007F110024FF482517B6102231F483B61F7
:1045A0001CF0A0FE1E4B9B6A9B060BD5224B1524CC
:1045B00007F110024FF482517B61022317483B61DF
:1045C0001CF090FE164B9A6AD50602D49A6A9007A0
:1045D0000AD55B68190507D549463046FFF7F8FD4F
:1045E00010B180F3098802240D4B9A6A920603D514
:1045F0005A6A22F400525A629A6A2046183742F0E8
:10460000FF029A62002388F80030BD46BDE8F087BB
:104610006FF01506B0E700BF5713030854F6020801
:1046200000ED00E06D130308E7110308A013030871
:10463000B8130308CE1303085B1203082DE9F043F7
:104640007B4B8BB004460026D3F8048000AFC8F340
:10465000080586F31188BFF36F8F02F07F43B3F133
:104660007F4F0ED102F00C03082B19D1714B07F1CB
:1046700018024FF482517048FB610223BB611CF0A9
:1046800031FE002634460023FB71EB1E092B00F29D
:10469000AE80DFE803F00AA1A49DACACACACACA743
:1046A00010074CBF0C460126EDE7E946634B4FF07F
:1046B000020807F118024FF48251FB615E48C7F807
:1046C00018801CF00FFE5A4D0023FB71EB6A9A070D
:1046D0000BD55B4BC7E9068307F118024FF48251F3
:1046E00055481CF0FFFD002342E0EB6A002B01DA85
:1046F000544BEFE7EB6A5B00F5D5534B07F118021B
:104700004FF482514C48C7E906831CF0EBFD6B69FE
:10471000A26943F480736B61BFF34F8FBFF36F8F58
:104720006B6932F8022C23F480736B61BFF34F8FF7
:10473000BFF36F8F4DF602739A4209D0AB6ADBB2BA
:10474000002B38D0FA1D01212046FFF7BBFE41E0C7
:1047500088B023686A463D493748C2E905130323F8
:104760004FF4C25142F8103F1CF0BCFDCD46236807
:10477000FA79E2B907F1080504F1200C2068083441
:1047800054F8041C2A46644503C21546F6D17A6AD9
:10479000002E47D0C2F3080121B96FEA52226FEA16
:1047A00042227A6207F108011846FFF7F5FB2C3721
:1047B000BD46BDE8F083AB6A13F47F4F04D0F91D0A
:1047C0000120FFF753FD05E0AB6AB3F5803F8AD3C4
:1047D000FFF7F6FD0346CBE7FA1D0021B4E7F91D0C
:1047E0000020EEE71A4BFB610223BB6174E718F46B
:1047F000F87F184AE8468AB0174B18BF13466A4636
:104800001649103D0C48D561C2E905134FF40073F9
:104810004FF411511384124B42F8103F1CF062FD0B
:10482000C54660E722F4FF7222F00102B9E700BF3B
:1048300000ED00E01B14030854F6020846140308B8
:104840005D1403087E1403088C140308AB140308DA
:10485000C714030802140308ED130308EB1403083C
:1048600004000001024A536943F01003536170478A
:1048700000ED00E0EFF30880EFF3098101B5724627
:10488000FFF7DCFE01BD00BF002304481021C21861
:104890000133A32B82F80013F9D1704700E100E047
:1048A000102080F3118808484FF40461401880F309
:1048B0000988EFF314800221084380F31488BFF3C2
:1048C0006F8FFFF7F7FB0000001A0124084B9B686D
:1048D00083420BD1EFF3058343B1064B5A6842F094
:1048E00080525A605A6A22F400425A6216F096BF09
:1048F0000815012400ED00E0024B0121024A0348A3
:1049000000F092B800000524000000246CF80208B2
:10491000426E4021044B403A18461A60034AC3E9EC
:104920000112012100F08AB84418002400000B1580
:104930002DE9F0419C4600AF15460023DFF8ACE0BE
:104940008B421ADA4468002C4DD0BCF1000F1DD008
:10495000661E344215D06C4688B06A462449C2E9C6
:104960000513032342F8103F00234FF4C25121489E
:104970006FF01505FFF70AF8A5462846BD46BDE8C5
:10498000F0811F2CE7D902681642E4D1202C5FFA8F
:1049900085F80268866814D9B4F1004F13D8013C39
:1049A000B4FA84F4C4F11F046400B8F10F0F46EAAE
:1049B00004060AD96C4688B06A460F4BC2E9053531
:1049C000CFE70824F1E73E24EFE722F01F02CEF8FC
:1049D000985046F001062A43013542F01002CEF805
:1049E0009C20CEF8A06001330C30A9E700ED00E078
:1049F000021503084CF6020825150308044B05228E
:104A0000C3F89420BFF34F8FBFF36F8F704700BF81
:104A100000ED00E0BFF35F8F024B0022C3F894204B
:104A2000704700BF00ED00E010B5034C0123227871
:104A3000FFF77EFF207010BDA4150124094A08B5B8
:104A400000231278FFF774FF10F1160F03D0064B06
:104A500000220F2800DD08BDC3F898000130C3F81C
:104A6000A020F6E7A415012400ED00E01449086831
:104A7000102810B521D8FFF7CDFF124C496800224D
:104A8000904201F10C0105D10F4B18700020FFF787
:104A9000B5FF10BDC4F8982051F80C3C23F01F035B
:104AA0001343013243F01003C4F89C3051F8043C26
:104AB00043F00103C4F8A030E2E74FF0FF30E8E72D
:104AC000B0F7020800ED00E0A4150124014B1860C6
:104AD000704700BFA4060024F8B506460D46002422
:104AE000064FAC4208DA3B6898470A28305504F173
:104AF000010401D00D28F4D12046F8BDA006002401
:104B0000F8B50D46461EC0F10104084FA3199D4299
:104B100001DC2846F8BD73780A2B02D13B680D20D2
:104B200098473B6816F8010F9847EFE7A406002462
:104B300010B5074C2368C2180648C0F1105101F5A2
:104B4000A0218A4236BFC0184FF0FF30226010BD4E
:104B5000501800240084012408B51D210448FFF7E3
:104B6000CFFF404080F311884FF0030002DF00BF09
:104B70004B150308044808B51BF07EFF404080F346
:104B800011884FF0040002DF691503082DE9F04198
:104B9000054600244FF001084FF0B0460E4F2B7829
:104BA00053FA84F01F280FDC08FA00F3D6F88820A7
:104BB00033EA020208D1C6F8883057F830301BB10A
:104BC00007EBC0025168984701346A78E3B29A4211
:104BD000E5D2BDE8F08100BF54180024044B03EB7C
:104BE00040000023013320F8022B9942FADC704781
:104BF00044090024084B02464FF0B04110B433F989
:104C000010000123D1F8804093402343C1F8803045
:104C100010BCFFF727BA00BF440900240A4B30B587
:104C200053F830408C4204D103EBC0056D689542C7
:104C300005D034B943F8301003EBC0035A600020AC
:104C400030BD6FF00F00FBE754180024034B002227
:104C500043F8302003EBC0035A6070475418002417
:104C6000044B05489B6A03F00303022B18BF002086
:104C7000704700BF0044025800127A0008B50A4B82
:104C80001B6903F03803102B09D0182B09D1FFF74B
:104C9000E7FF40F2131380085843400808BD03485B
:104CA000FBE70020F9E700BF0044025800127A0039
:104CB00010B50A68102A23D8134BD340DB071FD541
:104CC0004A68D3B2C2F34234C2F3042203F1B043C0
:104CD00004FA02F203F51133186820EA02021A609E
:104CE0004968CBB2C1F30242C1F3042103F1B043DE
:104CF0008A4003F511331868024300201A6010BD82
:104D00006FF08500FBE700BF0E3C010008B5324B99
:104D100018680B68102B2DD813B96FF0850028E0A8
:104D2000013B0F2BF9D801A151F823F0AD4D00083C
:104D3000BB4D0008CB4D00081B4D00081B4D000863
:104D40001B4D00081B4D00081B4D00081B4D0008A3
:104D50006D4D0008974D0008A34D0008A94D0008AF
:104D60001B4D00081B4D00089D4D00081B4810609E
:104D7000002008BDD42B0CD0D83B1C2BCDD8012152
:104D800001FA03F316490B421DD140F211110B42F7
:104D9000C3D04008EBE74FF40040E8E7FFF76EFFB1
:104DA000E5E74FF4FA40E2E70E48E0E7FFF758FF87
:104DB00040F2131380085843D9E7FFF751FF40F240
:104DC0001313800858438008D1E7FFF749FF40F2EA
:104DD000131380085843DCE73807002400127A00D8
:104DE00000101111006CDC027D4B37B5D3F8E020C8
:104DF00042F00072C3F8E020D3F8E02002F0007225
:104E00000192019A1A6842F480221A601A6842F4E8
:104E100080321A601A689403FCD55A6F42F001027E
:104E20005A676F4B5A6F9007FCD56E490A6842F477
:104E300080720A601A6F22F018021A671A6F42F025
:104E400001021A67664B1A6F9107FCD51A6842F483
:104E500080521A601A689204FCD51A6902F038026E
:104E6000182A17D11A68550707D41A6842F00102A8
:104E70001A605B4A13685C07FCD5594B1A6922F02B
:104E800007021A611A6912F0380FFBD19A6922F0F1
:104E90000F029A61524B1A6822F080721A609A6A65
:104EA00022F0030242F002029A629A6A22F47C72B1
:104EB00042F040029A62DA6A22F00C02DA62DA6A9E
:104EC00042F00202DA621A6B22F4FF7222F001024F
:104ED00042F489721A63DA6A22F00102DA621A6B0A
:104EE00022F47E421A63DA6A42F48032DA621A6B82
:104EF00022F4FE0242F440321A63DA6A42F40032CB
:104F0000DA621A6B22F0FE4242F080721A63DA6AA9
:104F100042F48022DA621A6842F080721A601A68DB
:104F20009001FCD52F4BDA6822F0070242F0020212
:104F3000DA609A6922F440429A619A699104FCD538
:104F4000294DFFF79BFE0446A84202D8274801F0EE
:104F5000A9F9234B9A6922F470629A619A6922F046
:104F60000F0242F008029A61DA6922F0700242F000
:104F70004002DA61DA6922F4E06242F48062DA61C6
:104F80009A6922F0700242F040029A611A6A22F095
:104F9000700242F040021A621A6922F0070242F0DF
:104FA00003021A611A6902F03802182AFAD1AC42D7
:104FB00002D90E4801F076F90A4BDA6822F00702AE
:104FC00042F00202DA609A6922F440429A619A69D8
:104FD0009204FCD5064B0020064A1A6003B030BD8F
:104FE0000044025800480258BF2A6410C02A6410C6
:104FF000380700248055C82008B5074829F0EEFD81
:1050000038B10648FFF762FD0448FDF797FD002020
:1050100008BD6FF01200FBE798F00208215000086D
:105020000A2838B50446074D04D1AB680D2128463F
:105030005B689847AB68E1B202485B6898472046D6
:1050400038BD00BF98F002087FB5074B04AA4FF4A3
:10505000825106480593022304931CF061FA6FF015
:10506000850007B05DF804FBAB15030824F60208C1
:105070007FB5074B04AA4FF48251064805930223DB
:1050800004931CF04DFA6FF0850007B05DF804FB47
:10509000C415030824F602087FB5074B04AA4FF491
:1050A000825106480593022304931CF039FA00202C
:1050B00007B05DF804FB00BFDA15030824F6020808
:1050C0007FB5074B04AA4FF482510648059302238B
:1050D00004931CF025FA6FF0850007B05DF804FB1F
:1050E0000216030824F602087FB5074B04AA4FF402
:1050F000825106480593022304931CF011FA6FF0C5
:10510000850007B05DF804FB2116030824F60208A9
:10511000F0B587B00546466800AF706829F05EFDBF
:1051200080B95B4B7B6102236FF0120407F1100220
:105130004FF4825157483B611CF0F2F920461C376E
:10514000BD46F0BD306918B129F048FD0028E8D00F
:10515000F06929F043FD08B94F4BE3E74FF4003104
:1051600006F11C001CF0A0F9041E0FDA6D4688B091
:105170006A464A4B4FF4C2514648C2E905340323FC
:1051800042F8103F1CF0CCF9AD46D7E7706A88B101
:1051900029F024FD08B9424BC4E74FF4B01106F1E1
:1051A00024001CF081F9041E04DA6D4688B06A46BA
:1051B0003C4BDFE76C68636A83B1243401212046ED
:1051C0001CF0BCF900210A2016F00AFB0021204641
:1051D0001CF0B4F93220002116F002FB002301215B
:1051E00028461A461CF0BEF9041E04DA6D4688B043
:1051F0006A462D4BBEE70021322016F0F1FA284610
:105200001CF0A3FA6E68284696F82C30002B14BFC9
:10521000012110211CF005FA041E14DBF18D29B1C7
:105220005A2915D0B42914BF0321022128461CF0A5
:10523000C5F9041E07DB96F834305BB9F36B2846DA
:105240009847041E0FDA6D4688B06A46174B91E7FF
:105250000121EBE70023212128461A461CF082F9A0
:10526000041EEBDAEFE70023112128461A461CF052
:1052700079F9041E06DB4FF496600021002416F035
:10528000AFFA5BE76D4688B06A46094B72E700BF2C
:105290003C16030824F60208541603087716030880
:1052A000A2160308BE160308E21603080D1703082A
:1052B0002E17030838B5036904465860084D284680
:1052C00029F08CFC40B161682846AB680C311B6842
:1052D000984700EAE07038BD6FF01200FBE700BFAE
:1052E00080EF0208F7B517460C461D464668B7F52D
:1052F000001F026928D101F003030F2204339B0031
:105300009A4042EA9102374902F00303023351F80E
:105310002310130C93FAA3F3B3FA83F301EA1242B6
:1053200003F01F0322FA03F3B2689A4209D1204620
:105330001CF056F82046FFF789FC002120461CF09F
:105340005CF8002003B0F0BDB7F5800F44D02649CB
:105350002046FFF763FC002841D1244A6B46B6681B
:1053600092E8030083E80300214819468268126826
:105370009047D8B904F003030F2104339B009940F0
:1053800041EA940101F003030A0C92FAA2F29B0095
:10539000B2FA82F203F1B04302F01F02D3F808041C
:1053A000964020EA11410E43C3F80864B5F1806FBE
:1053B0000ED0B5F1C06F0DD005F17E435942594171
:1053C000490020461CF019F82046FFF713FCB8E707
:1053D0000121F6E70321F4E76FF08500B2E76FF0F3
:1053E0000F00AFE700040058A319020880F6020876
:1053F00080EF02082DE9F047044600EBC1060025C6
:105400001C4FB44201D1002014E02068C30600F014
:105410001F0911D4656845F02005C0F3471AC0F391
:1054200043200A2823D857F82080B8F1000F0DD167
:105430006FF01200BDE8F087B9F1100F04D0B9F198
:10544000110FEAD16568E8E73025E6E7404629F024
:10545000C5FB0028ECD04B462A460AF00F01404617
:105460001CF0B6FA002804F10804CADAE2E76FF08B
:105470001500DFE7E0F902087FB5074B059302232B
:105480000493002304AA4FF482510448FEF77EFAE5
:1054900007B05DF804FB00BF4D18030864F602086E
:1054A0002DE9F84F0B790D464668012B07692ED080
:1054B000A3F1020EDEF1000848EB0E084FEA88283F
:1054C00095F8059095F806A0B9F1020FEC7996BF12
:1054D000744A4FF4005E32F819E0BAF1020F19D0A5
:1054E000BAF1040F4CD0002B4AD1012C00F0CF8030
:1054F000E21E9C46514251411A4619F0FD0F3CD024
:10550000BAF1010F39D9BAF1040F36D011E04FF4D6
:10551000C068D5E7A3B9012C29F0020233D0A4F169
:10552000030CDCF1000141EB0C0132B39C464FF05F
:105530008052002C59D0012C2CD0032C2AD01CE0F6
:105540000022012CA4F1030B14BF4FF0000C4FF408
:10555000407CDBF1000141EB0B01A3F1030BBBF13C
:10556000010F0AD9002BC8D0BAF1040F05D019F0E9
:10557000FD0F02D0BAF1010FDBD86FF0850084E097
:105580004FF48052DDE7002AF7D019464FF4407CF3
:105590004FF080523368444CA34226D0A4F54C44CB
:1055A000A34222D004F58064A3421ED004F5806497
:1055B000A3421AD004F58064A34216D004F54444F3
:1055C000A34212D0A4F51C44A3420ED004F580647B
:1055D000A3420AD004F51C44A34206D004F580641B
:1055E000A34202D0314CA342C7D13468236823F0D0
:1055F0000103236043681C68236803F4C063984573
:1056000005D0236823F4C06343EA0803236043689A
:105610001C68636803F440539E4505D0636823F417
:10562000405343EA0E03636043681C68236803F039
:105630001023934204D0236823F0102313432360E4
:1056400043681A68936803F44073634505D0936810
:1056500023F4407343EA0C03936043681B689A6821
:10566000520419D419B19A6842F480429A602968A8
:105670003B68994203D01CF0C8FA2B683B60326843
:105680000020136843F001031360BDE8F88F1A4649
:105690004FF4407C194630E70029E8D19A6822F49B
:1056A0008042E3E7380B030800100140000C00586B
:1056B0002DE9F04786B006464468D0F8108000AF68
:1056C0009348C8F8040029F089FA034668B9914A5A
:1056D0007A6102223A614FF4825107F110028E483A
:1056E0006FF01205FEF752F913E0D8F80400616874
:1056F00083681B689847054680B1884B7B6102230D
:105700003B61002307F110024FF482518248FEF7FB
:105710003DF928461837BD46BDE8F08701463A46B0
:10572000E0691CF06DF9002801DA0546F1E73B68F5
:105730002A4619791868FFF75DFE0028F5DB226814
:10574000136823F001031360D8F8080029F046FA23
:10575000034608B9724ABBE7D8E902018368DB68EF
:1057600003B19847226852E8003F43F00C0342E837
:105770000039B9F1000FF6D12369022B00F09380B4
:10578000012B00F09580002B7CD10023216843EA97
:1057900009030A6822F0805222F4B0521A430A60C8
:1057A0004B6823F440534B60237B2BB173681A681A
:1057B000936843F440739360D8F8001030461CF0AF
:1057C00024FA237D23B12268936843F00803936091
:1057D000637D23B12268536843F400435360A37D83
:1057E00023B12268536843F480335360E37D23B1CF
:1057F0002268536843F400335360227E2368002AF2
:1058000078D0484A934258D0A2F54C42934254D0A3
:1058100002F58062934250D002F5806293424CD0F0
:1058200002F58062934248D002F54442934244D04C
:10583000A2F51C42934240D002F5806293423CD0D4
:1058400002F51C42934238D002F58062934234D074
:10585000354A934231D06C4688B033686A46334942
:10586000C2E905134FF400739383314B42F8103FA4
:1058700000234FF4E25128486FF01505FEF786F833
:10588000A54646E7EA4688B06A462A49C2E90513B2
:10589000032342F8103F4FF4C4514B461E48FEF715
:1058A00075F8D54671E74FF480534FF480696DE782
:1058B0004FF480534FF4C06968E773681A689368BF
:1058C00043F4804393602268617E136823F0787309
:1058D00043EA415313602268A17E136823F4F8134E
:1058E00043EA01431360E37E23B12268936843F4E3
:1058F000004393602268136843F001031360236838
:10590000DA699102FCD5DA695202FCD501E700BFE1
:1059100080EF02087B18030864F602089A1803084F
:10592000BA18030800100140000C005807190308BA
:1059300003000001D51803082DE9F04387B000AF3C
:1059400006694568DFF85881404629F047F9034663
:1059500088B9544A7A6102223A614FF4825107F1C0
:1059600010025148FEF712F86FF0120420461C375F
:10597000BD46BDE8F083D8F808904046E968D9F8FC
:1059800000309847041E0CDA484B7B6102233B61D0
:10599000002307F110024FF482514348FDF7F6FF50
:1059A000E4E7AB68012B0ED9E968D9F81830083163
:1059B00033B1002240469847041E04DA3C4BE4E72A
:1059C0006FF05704FAE73A46002168681CF018F8AF
:1059D000041E07DB3B68002219791868FFF70AFDEF
:1059E000041E10DA6D4688B06A46324BC2E90534AF
:1059F000032342F8103F00234FF4C2512A48FDF719
:105A0000C5FFAD46B2E7B5684FF00108D6E90232EE
:105A100003EBC2039D4204D3304600241CF06FF90F
:105A2000A4E7286829F0DAF80346B0B92A686C467A
:105A30008AB0297910686A46D1614FF400711E4D11
:105A400011841E49C2E9055042F8101F4FF411514C
:105A50001548FDF79BFFA54686E728682979EB885E
:105A6000DA07D0F810C008FA01FED0F8089054BF49
:105A700043F4B01383F4D013DCF8004023F4801215
:105A8000DB074CBF44EA0E0424EA0E04CCF80040C5
:105A9000D9F800309847041EFFF668AF0835B5E71F
:105AA00080EF02087B1803085CF60208541903080B
:105AB0006F19030891190308AF19030804000001C6
:105AC0002DE9F04F93B099468246884600AF43686F
:105AD00004691E687A6012B9B9F1000F37D0B8F8BE
:105AE00004309D0438D44FF0FF324FF0FF3304F1FF
:105AF000100015F08BFBC4F80480DFF83CE107F1DF
:105B00002805DAF810B0DAF804C0BEE80F000FC5B7
:105B10009EE80F0085E80F00DBF80020B8F804309D
:105B20009045DCF80050C3F3451100F0EC800829E3
:105B300019D0102917D06FF0850923689B8813F4BA
:105B4000005304D1636004F1100015F03BFB48469C
:105B50004C37BD46BDE8F08FA369002BC3D1636805
:105B60009845C0D1C9E7180405D5EB6823F4601344
:105B700043F40023EB603148DCF808208368012AF5
:105B8000DCF80C10DB6837D9083173B92C4B7B6219
:105B900002233B62002307F120024FF4825129487F
:105BA000FDF7F4FE6FF00409C7E707F10C02984710
:105BB0000028EBDBF9680123D8F8000021FA03F292
:105BC000824222D90133092BF8D16D468AB06A4648
:105BD0001D4BC2E905304B08090AD3610523116248
:105BE00042F8103F00234FF4215116486FF0150979
:105BF000FDF7CCFEAD46A0E70BB9144BC7E707F1A4
:105C00000C0298470028D5DAF7E72A6807F148011F
:105C100022F0010201EB83032A60AA6853F8243CB6
:105C200022F0E0421343AB60B8F8043099070FD478
:105C3000EB6823F000730EE088F6020880EF02089C
:105C4000D31903085CF602082B1A0308FF1903088E
:105C5000EB6843F00073EB60B8F8043013F0040F06
:105C6000EB6814BF43F0807323F08073EB602B6804
:105C700023F400632B60EB6823F4C023EB60B8F8D7
:105C8000043013F0100FEB6814BF43F4000323F447
:105C90000003EB60AB6823F48003AB60D8F8082006
:105CA000B8F80430002A00F00681DA0706D4EB6861
:105CB000DB0003D42B6843F480532B60EB6823F0A4
:105CC000105343F08063EB60B8F8043013F0010F19
:105CD000EB6814BF23F4800343F48003EB60B8F84F
:105CE0000430C3F34513082BAB6823F01F030CBF2C
:105CF00043F0070343F00F03AB60AB6823F4F0738A
:105D0000AB60CBF80080B8F804304A46796820468A
:105D1000C3F34513082B0CBF012302231BF0ACFF78
:105D20007369DD0700F1D080336843F0010333600D
:105D3000012014F031FFDAF810502868002840F0F4
:105D4000C68023689A8812F0010340F00C817269C2
